{
	"contracts/TodoList.sol": {
		"TodoList": {
			"abi": [
				{
					"inputs": [
						{
							"internalType": "string",
							"name": "_name",
							"type": "string"
						},
						{
							"internalType": "uint256",
							"name": "_count",
							"type": "uint256"
						}
					],
					"name": "addTodo",
					"outputs": [],
					"stateMutability": "nonpayable",
					"type": "function"
				},
				{
					"inputs": [
						{
							"internalType": "uint256",
							"name": "_i",
							"type": "uint256"
						}
					],
					"name": "deleteTodo",
					"outputs": [],
					"stateMutability": "nonpayable",
					"type": "function"
				},
				{
					"inputs": [],
					"name": "getUserTodoList",
					"outputs": [
						{
							"components": [
								{
									"internalType": "string",
									"name": "name",
									"type": "string"
								},
								{
									"internalType": "uint256",
									"name": "count",
									"type": "uint256"
								}
							],
							"internalType": "struct TodoList.todoList[]",
							"name": "",
							"type": "tuple[]"
						}
					],
					"stateMutability": "view",
					"type": "function"
				},
				{
					"inputs": [
						{
							"internalType": "address",
							"name": "",
							"type": "address"
						},
						{
							"internalType": "uint256",
							"name": "",
							"type": "uint256"
						}
					],
					"name": "userTodoList",
					"outputs": [
						{
							"internalType": "string",
							"name": "name",
							"type": "string"
						},
						{
							"internalType": "uint256",
							"name": "count",
							"type": "uint256"
						}
					],
					"stateMutability": "view",
					"type": "function"
				}
			],
			"devdoc": {
				"kind": "dev",
				"methods": {},
				"version": 1
			},
			"evm": {
				"assembly": "    /* \"contracts/TodoList.sol\":58:807  contract TodoList {... */\n  mstore(0x40, 0x80)\n  callvalue\n  dup1\n  iszero\n  tag_1\n  jumpi\n  0x00\n  dup1\n  revert\ntag_1:\n  pop\n  dataSize(sub_0)\n  dup1\n  dataOffset(sub_0)\n  0x00\n  codecopy\n  0x00\n  return\nstop\n\nsub_0: assembly {\n        /* \"contracts/TodoList.sol\":58:807  contract TodoList {... */\n      mstore(0x40, 0x80)\n      callvalue\n      dup1\n      iszero\n      tag_1\n      jumpi\n      0x00\n      dup1\n      revert\n    tag_1:\n      pop\n      jumpi(tag_2, lt(calldatasize, 0x04))\n      shr(0xe0, calldataload(0x00))\n      dup1\n      0x2da951be\n      eq\n      tag_3\n      jumpi\n      dup1\n      0x58aff6d4\n      eq\n      tag_4\n      jumpi\n      dup1\n      0x6e3c6738\n      eq\n      tag_5\n      jumpi\n      dup1\n      0x9c0275d0\n      eq\n      tag_6\n      jumpi\n    tag_2:\n      0x00\n      dup1\n      revert\n        /* \"contracts/TodoList.sol\":687:805  function getUserTodoList () external view returns(todoList[] memory)  {... */\n    tag_3:\n      tag_7\n      tag_8\n      jump\t// in\n    tag_7:\n      mload(0x40)\n      tag_9\n      swap2\n      swap1\n      tag_10\n      jump\t// in\n    tag_9:\n      mload(0x40)\n      dup1\n      swap2\n      sub\n      swap1\n      return\n        /* \"contracts/TodoList.sol\":211:360  function addTodo(string memory _name, uint256 _count) external {... */\n    tag_4:\n      tag_11\n      0x04\n      dup1\n      calldatasize\n      sub\n      dup2\n      add\n      swap1\n      tag_12\n      swap2\n      swap1\n      tag_13\n      jump\t// in\n    tag_12:\n      tag_14\n      jump\t// in\n    tag_11:\n      stop\n        /* \"contracts/TodoList.sol\":366:681  function deleteTodo (uint256 _i) external {... */\n    tag_5:\n      tag_15\n      0x04\n      dup1\n      calldatasize\n      sub\n      dup2\n      add\n      swap1\n      tag_16\n      swap2\n      swap1\n      tag_17\n      jump\t// in\n    tag_16:\n      tag_18\n      jump\t// in\n    tag_15:\n      stop\n        /* \"contracts/TodoList.sol\":154:204  mapping (address =>todoList[]) public userTodoList */\n    tag_6:\n      tag_19\n      0x04\n      dup1\n      calldatasize\n      sub\n      dup2\n      add\n      swap1\n      tag_20\n      swap2\n      swap1\n      tag_21\n      jump\t// in\n    tag_20:\n      tag_22\n      jump\t// in\n    tag_19:\n      mload(0x40)\n      tag_23\n      swap3\n      swap2\n      swap1\n      tag_24\n      jump\t// in\n    tag_23:\n      mload(0x40)\n      dup1\n      swap2\n      sub\n      swap1\n      return\n        /* \"contracts/TodoList.sol\":687:805  function getUserTodoList () external view returns(todoList[] memory)  {... */\n    tag_8:\n        /* \"contracts/TodoList.sol\":737:754  todoList[] memory */\n      0x60\n        /* \"contracts/TodoList.sol\":774:786  userTodoList */\n      0x00\n        /* \"contracts/TodoList.sol\":774:798  userTodoList[msg.sender] */\n      dup1\n        /* \"contracts/TodoList.sol\":787:797  msg.sender */\n      caller\n        /* \"contracts/TodoList.sol\":774:798  userTodoList[msg.sender] */\n      0xffffffffffffffffffffffffffffffffffffffff\n      and\n      0xffffffffffffffffffffffffffffffffffffffff\n      and\n      dup2\n      mstore\n      0x20\n      add\n      swap1\n      dup2\n      mstore\n      0x20\n      add\n      0x00\n      keccak256\n        /* \"contracts/TodoList.sol\":767:798  return userTodoList[msg.sender] */\n      dup1\n      sload\n      dup1\n      0x20\n      mul\n      0x20\n      add\n      mload(0x40)\n      swap1\n      dup2\n      add\n      0x40\n      mstore\n      dup1\n      swap3\n      swap2\n      swap1\n      dup2\n      dup2\n      mstore\n      0x20\n      add\n      0x00\n      swap1\n    tag_26:\n      dup3\n      dup3\n      lt\n      iszero\n      tag_27\n      jumpi\n      dup4\n      dup3\n      swap1\n      0x00\n      mstore\n      keccak256(0x00, 0x20)\n      swap1\n      0x02\n      mul\n      add\n      mload(0x40)\n      dup1\n      0x40\n      add\n      0x40\n      mstore\n      swap1\n      dup2\n      0x00\n      dup3\n      add\n      dup1\n      sload\n      tag_29\n      swap1\n      tag_30\n      jump\t// in\n    tag_29:\n      dup1\n      0x1f\n      add\n      0x20\n      dup1\n      swap2\n      div\n      mul\n      0x20\n      add\n      mload(0x40)\n      swap1\n      dup2\n      add\n      0x40\n      mstore\n      dup1\n      swap3\n      swap2\n      swap1\n      dup2\n      dup2\n      mstore\n      0x20\n      add\n      dup3\n      dup1\n      sload\n      tag_31\n      swap1\n      tag_30\n      jump\t// in\n    tag_31:\n      dup1\n      iszero\n      tag_32\n      jumpi\n      dup1\n      0x1f\n      lt\n      tag_33\n      jumpi\n      0x0100\n      dup1\n      dup4\n      sload\n      div\n      mul\n      dup4\n      mstore\n      swap2\n      0x20\n      add\n      swap2\n      jump(tag_32)\n    tag_33:\n      dup3\n      add\n      swap2\n      swap1\n      0x00\n      mstore\n      keccak256(0x00, 0x20)\n      swap1\n    tag_34:\n      dup2\n      sload\n      dup2\n      mstore\n      swap1\n      0x01\n      add\n      swap1\n      0x20\n      add\n      dup1\n      dup4\n      gt\n      tag_34\n      jumpi\n      dup3\n      swap1\n      sub\n      0x1f\n      and\n      dup3\n      add\n      swap2\n    tag_32:\n      pop\n      pop\n      pop\n      pop\n      pop\n      dup2\n      mstore\n      0x20\n      add\n      0x01\n      dup3\n      add\n      sload\n      dup2\n      mstore\n      pop\n      pop\n      dup2\n      mstore\n      0x20\n      add\n      swap1\n      0x01\n      add\n      swap1\n      jump(tag_26)\n    tag_27:\n      pop\n      pop\n      pop\n      pop\n      swap1\n      pop\n        /* \"contracts/TodoList.sol\":687:805  function getUserTodoList () external view returns(todoList[] memory)  {... */\n      swap1\n      jump\t// out\n        /* \"contracts/TodoList.sol\":211:360  function addTodo(string memory _name, uint256 _count) external {... */\n    tag_14:\n        /* \"contracts/TodoList.sol\":284:296  userTodoList */\n      0x00\n        /* \"contracts/TodoList.sol\":284:308  userTodoList[msg.sender] */\n      dup1\n        /* \"contracts/TodoList.sol\":297:307  msg.sender */\n      caller\n        /* \"contracts/TodoList.sol\":284:308  userTodoList[msg.sender] */\n      0xffffffffffffffffffffffffffffffffffffffff\n      and\n      0xffffffffffffffffffffffffffffffffffffffff\n      and\n      dup2\n      mstore\n      0x20\n      add\n      swap1\n      dup2\n      mstore\n      0x20\n      add\n      0x00\n      keccak256\n        /* \"contracts/TodoList.sol\":314:352  todoList({name: _name, count: _count}) */\n      mload(0x40)\n      dup1\n      0x40\n      add\n      0x40\n      mstore\n      dup1\n        /* \"contracts/TodoList.sol\":330:335  _name */\n      dup5\n        /* \"contracts/TodoList.sol\":314:352  todoList({name: _name, count: _count}) */\n      dup2\n      mstore\n      0x20\n      add\n        /* \"contracts/TodoList.sol\":344:350  _count */\n      dup4\n        /* \"contracts/TodoList.sol\":314:352  todoList({name: _name, count: _count}) */\n      dup2\n      mstore\n      pop\n        /* \"contracts/TodoList.sol\":284:353  userTodoList[msg.sender].push(todoList({name: _name, count: _count})) */\n      swap1\n      dup1\n      0x01\n      dup2\n      sload\n      add\n      dup1\n      dup3\n      sstore\n      dup1\n      swap2\n      pop\n      pop\n      0x01\n      swap1\n      sub\n      swap1\n      0x00\n      mstore\n      keccak256(0x00, 0x20)\n      swap1\n      0x02\n      mul\n      add\n      0x00\n      swap1\n      swap2\n      swap1\n      swap2\n      swap1\n      swap2\n      pop\n      0x00\n      dup3\n      add\n      mload\n      dup2\n      0x00\n      add\n      swap1\n      dup2\n      tag_37\n      swap2\n      swap1\n      tag_38\n      jump\t// in\n    tag_37:\n      pop\n      0x20\n      dup3\n      add\n      mload\n      dup2\n      0x01\n      add\n      sstore\n      pop\n      pop\n        /* \"contracts/TodoList.sol\":211:360  function addTodo(string memory _name, uint256 _count) external {... */\n      pop\n      pop\n      jump\t// out\n        /* \"contracts/TodoList.sol\":366:681  function deleteTodo (uint256 _i) external {... */\n    tag_18:\n        /* \"contracts/TodoList.sol\":429:441  userTodoList */\n      0x00\n        /* \"contracts/TodoList.sol\":429:453  userTodoList[msg.sender] */\n      dup1\n        /* \"contracts/TodoList.sol\":442:452  msg.sender */\n      caller\n        /* \"contracts/TodoList.sol\":429:453  userTodoList[msg.sender] */\n      0xffffffffffffffffffffffffffffffffffffffff\n      and\n      0xffffffffffffffffffffffffffffffffffffffff\n      and\n      dup2\n      mstore\n      0x20\n      add\n      swap1\n      dup2\n      mstore\n      0x20\n      add\n      0x00\n      keccak256\n        /* \"contracts/TodoList.sol\":429:460  userTodoList[msg.sender].length */\n      dup1\n      sload\n      swap1\n      pop\n        /* \"contracts/TodoList.sol\":426:428  _i */\n      dup2\n        /* \"contracts/TodoList.sol\":426:460  _i<userTodoList[msg.sender].length */\n      lt\n        /* \"contracts/TodoList.sol\":418:477  require(_i<userTodoList[msg.sender].length, \"out of index\") */\n      tag_40\n      jumpi\n      mload(0x40)\n      0x08c379a000000000000000000000000000000000000000000000000000000000\n      dup2\n      mstore\n      0x04\n      add\n      tag_41\n      swap1\n      tag_42\n      jump\t// in\n    tag_41:\n      mload(0x40)\n      dup1\n      swap2\n      sub\n      swap1\n      revert\n    tag_40:\n        /* \"contracts/TodoList.sol\":491:500  uint256 i */\n      0x00\n        /* \"contracts/TodoList.sol\":503:505  _i */\n      dup2\n        /* \"contracts/TodoList.sol\":491:505  uint256 i = _i */\n      swap1\n      pop\n        /* \"contracts/TodoList.sol\":487:635  for(uint256 i = _i; i < userTodoList[msg.sender].length-1; i++) {... */\n    tag_43:\n        /* \"contracts/TodoList.sol\":543:544  1 */\n      0x01\n        /* \"contracts/TodoList.sol\":511:523  userTodoList */\n      0x00\n        /* \"contracts/TodoList.sol\":511:535  userTodoList[msg.sender] */\n      dup1\n        /* \"contracts/TodoList.sol\":524:534  msg.sender */\n      caller\n        /* \"contracts/TodoList.sol\":511:535  userTodoList[msg.sender] */\n      0xffffffffffffffffffffffffffffffffffffffff\n      and\n      0xffffffffffffffffffffffffffffffffffffffff\n      and\n      dup2\n      mstore\n      0x20\n      add\n      swap1\n      dup2\n      mstore\n      0x20\n      add\n      0x00\n      keccak256\n        /* \"contracts/TodoList.sol\":511:542  userTodoList[msg.sender].length */\n      dup1\n      sload\n      swap1\n      pop\n        /* \"contracts/TodoList.sol\":511:544  userTodoList[msg.sender].length-1 */\n      tag_46\n      swap2\n      swap1\n      tag_47\n      jump\t// in\n    tag_46:\n        /* \"contracts/TodoList.sol\":507:508  i */\n      dup2\n        /* \"contracts/TodoList.sol\":507:544  i < userTodoList[msg.sender].length-1 */\n      lt\n        /* \"contracts/TodoList.sol\":487:635  for(uint256 i = _i; i < userTodoList[msg.sender].length-1; i++) {... */\n      iszero\n      tag_44\n      jumpi\n        /* \"contracts/TodoList.sol\":595:607  userTodoList */\n      0x00\n        /* \"contracts/TodoList.sol\":595:619  userTodoList[msg.sender] */\n      dup1\n        /* \"contracts/TodoList.sol\":608:618  msg.sender */\n      caller\n        /* \"contracts/TodoList.sol\":595:619  userTodoList[msg.sender] */\n      0xffffffffffffffffffffffffffffffffffffffff\n      and\n      0xffffffffffffffffffffffffffffffffffffffff\n      and\n      dup2\n      mstore\n      0x20\n      add\n      swap1\n      dup2\n      mstore\n      0x20\n      add\n      0x00\n      keccak256\n        /* \"contracts/TodoList.sol\":622:623  1 */\n      0x01\n        /* \"contracts/TodoList.sol\":620:621  i */\n      dup3\n        /* \"contracts/TodoList.sol\":620:623  i+1 */\n      tag_48\n      swap2\n      swap1\n      tag_49\n      jump\t// in\n    tag_48:\n        /* \"contracts/TodoList.sol\":595:624  userTodoList[msg.sender][i+1] */\n      dup2\n      sload\n      dup2\n      lt\n      tag_50\n      jumpi\n      tag_51\n      tag_52\n      jump\t// in\n    tag_51:\n    tag_50:\n      swap1\n      0x00\n      mstore\n      keccak256(0x00, 0x20)\n      swap1\n      0x02\n      mul\n      add\n        /* \"contracts/TodoList.sol\":565:577  userTodoList */\n      0x00\n        /* \"contracts/TodoList.sol\":565:589  userTodoList[msg.sender] */\n      dup1\n        /* \"contracts/TodoList.sol\":578:588  msg.sender */\n      caller\n        /* \"contracts/TodoList.sol\":565:589  userTodoList[msg.sender] */\n      0xffffffffffffffffffffffffffffffffffffffff\n      and\n      0xffffffffffffffffffffffffffffffffffffffff\n      and\n      dup2\n      mstore\n      0x20\n      add\n      swap1\n      dup2\n      mstore\n      0x20\n      add\n      0x00\n      keccak256\n        /* \"contracts/TodoList.sol\":590:591  i */\n      dup3\n        /* \"contracts/TodoList.sol\":565:592  userTodoList[msg.sender][i] */\n      dup2\n      sload\n      dup2\n      lt\n      tag_54\n      jumpi\n      tag_55\n      tag_52\n      jump\t// in\n    tag_55:\n    tag_54:\n      swap1\n      0x00\n      mstore\n      keccak256(0x00, 0x20)\n      swap1\n      0x02\n      mul\n      add\n        /* \"contracts/TodoList.sol\":565:624  userTodoList[msg.sender][i] = userTodoList[msg.sender][i+1] */\n      0x00\n      dup3\n      add\n      dup2\n      0x00\n      add\n      swap1\n      dup2\n      tag_57\n      swap2\n      swap1\n      tag_58\n      jump\t// in\n    tag_57:\n      pop\n      0x01\n      dup3\n      add\n      sload\n      dup2\n      0x01\n      add\n      sstore\n      swap1\n      pop\n      pop\n        /* \"contracts/TodoList.sol\":546:549  i++ */\n      dup1\n      dup1\n      0x01\n      add\n      swap2\n      pop\n      pop\n        /* \"contracts/TodoList.sol\":487:635  for(uint256 i = _i; i < userTodoList[msg.sender].length-1; i++) {... */\n      jump(tag_43)\n    tag_44:\n      pop\n        /* \"contracts/TodoList.sol\":644:656  userTodoList */\n      0x00\n        /* \"contracts/TodoList.sol\":644:668  userTodoList[msg.sender] */\n      dup1\n        /* \"contracts/TodoList.sol\":657:667  msg.sender */\n      caller\n        /* \"contracts/TodoList.sol\":644:668  userTodoList[msg.sender] */\n      0xffffffffffffffffffffffffffffffffffffffff\n      and\n      0xffffffffffffffffffffffffffffffffffffffff\n      and\n      dup2\n      mstore\n      0x20\n      add\n      swap1\n      dup2\n      mstore\n      0x20\n      add\n      0x00\n      keccak256\n        /* \"contracts/TodoList.sol\":644:674  userTodoList[msg.sender].pop() */\n      dup1\n      sload\n      dup1\n      tag_59\n      jumpi\n      tag_60\n      tag_61\n      jump\t// in\n    tag_60:\n    tag_59:\n      0x01\n      swap1\n      sub\n      dup2\n      dup2\n      swap1\n      0x00\n      mstore\n      keccak256(0x00, 0x20)\n      swap1\n      0x02\n      mul\n      add\n      0x00\n      dup1\n      dup3\n      add\n      0x00\n      tag_63\n      swap2\n      swap1\n      tag_64\n      jump\t// in\n    tag_63:\n      0x01\n      dup3\n      add\n      0x00\n      swap1\n      sstore\n      pop\n      pop\n      swap1\n      sstore\n        /* \"contracts/TodoList.sol\":366:681  function deleteTodo (uint256 _i) external {... */\n      pop\n      jump\t// out\n        /* \"contracts/TodoList.sol\":154:204  mapping (address =>todoList[]) public userTodoList */\n    tag_22:\n      mstore(0x20, 0x00)\n      dup2\n      0x00\n      mstore\n      keccak256(0x00, 0x40)\n      dup2\n      dup2\n      sload\n      dup2\n      lt\n      tag_65\n      jumpi\n      0x00\n      dup1\n      revert\n    tag_65:\n      swap1\n      0x00\n      mstore\n      keccak256(0x00, 0x20)\n      swap1\n      0x02\n      mul\n      add\n      0x00\n      swap2\n      pop\n      swap2\n      pop\n      pop\n      dup1\n      0x00\n      add\n      dup1\n      sload\n      tag_67\n      swap1\n      tag_30\n      jump\t// in\n    tag_67:\n      dup1\n      0x1f\n      add\n      0x20\n      dup1\n      swap2\n      div\n      mul\n      0x20\n      add\n      mload(0x40)\n      swap1\n      dup2\n      add\n      0x40\n      mstore\n      dup1\n      swap3\n      swap2\n      swap1\n      dup2\n      dup2\n      mstore\n      0x20\n      add\n      dup3\n      dup1\n      sload\n      tag_68\n      swap1\n      tag_30\n      jump\t// in\n    tag_68:\n      dup1\n      iszero\n      tag_69\n      jumpi\n      dup1\n      0x1f\n      lt\n      tag_70\n      jumpi\n      0x0100\n      dup1\n      dup4\n      sload\n      div\n      mul\n      dup4\n      mstore\n      swap2\n      0x20\n      add\n      swap2\n      jump(tag_69)\n    tag_70:\n      dup3\n      add\n      swap2\n      swap1\n      0x00\n      mstore\n      keccak256(0x00, 0x20)\n      swap1\n    tag_71:\n      dup2\n      sload\n      dup2\n      mstore\n      swap1\n      0x01\n      add\n      swap1\n      0x20\n      add\n      dup1\n      dup4\n      gt\n      tag_71\n      jumpi\n      dup3\n      swap1\n      sub\n      0x1f\n      and\n      dup3\n      add\n      swap2\n    tag_69:\n      pop\n      pop\n      pop\n      pop\n      pop\n      swap1\n      dup1\n      0x01\n      add\n      sload\n      swap1\n      pop\n      dup3\n      jump\t// out\n    tag_64:\n      pop\n      dup1\n      sload\n      tag_72\n      swap1\n      tag_30\n      jump\t// in\n    tag_72:\n      0x00\n      dup3\n      sstore\n      dup1\n      0x1f\n      lt\n      tag_74\n      jumpi\n      pop\n      jump(tag_73)\n    tag_74:\n      0x1f\n      add\n      0x20\n      swap1\n      div\n      swap1\n      0x00\n      mstore\n      keccak256(0x00, 0x20)\n      swap1\n      dup2\n      add\n      swap1\n      tag_75\n      swap2\n      swap1\n      tag_76\n      jump\t// in\n    tag_75:\n    tag_73:\n      pop\n      jump\t// out\n    tag_76:\n    tag_77:\n      dup1\n      dup3\n      gt\n      iszero\n      tag_78\n      jumpi\n      0x00\n      dup2\n      0x00\n      swap1\n      sstore\n      pop\n      0x01\n      add\n      jump(tag_77)\n    tag_78:\n      pop\n      swap1\n      jump\t// out\n        /* \"#utility.yul\":7:144   */\n    tag_79:\n        /* \"#utility.yul\":97:103   */\n      0x00\n        /* \"#utility.yul\":131:136   */\n      dup2\n        /* \"#utility.yul\":125:137   */\n      mload\n        /* \"#utility.yul\":115:137   */\n      swap1\n      pop\n        /* \"#utility.yul\":7:144   */\n      swap2\n      swap1\n      pop\n      jump\t// out\n        /* \"#utility.yul\":150:357   */\n    tag_80:\n        /* \"#utility.yul\":272:283   */\n      0x00\n        /* \"#utility.yul\":306:312   */\n      dup3\n        /* \"#utility.yul\":301:304   */\n      dup3\n        /* \"#utility.yul\":294:313   */\n      mstore\n        /* \"#utility.yul\":346:350   */\n      0x20\n        /* \"#utility.yul\":341:344   */\n      dup3\n        /* \"#utility.yul\":337:351   */\n      add\n        /* \"#utility.yul\":322:351   */\n      swap1\n      pop\n        /* \"#utility.yul\":150:357   */\n      swap3\n      swap2\n      pop\n      pop\n      jump\t// out\n        /* \"#utility.yul\":363:518   */\n    tag_81:\n        /* \"#utility.yul\":453:457   */\n      0x00\n        /* \"#utility.yul\":476:479   */\n      dup2\n        /* \"#utility.yul\":468:479   */\n      swap1\n      pop\n        /* \"#utility.yul\":506:510   */\n      0x20\n        /* \"#utility.yul\":501:504   */\n      dup3\n        /* \"#utility.yul\":497:511   */\n      add\n        /* \"#utility.yul\":489:511   */\n      swap1\n      pop\n        /* \"#utility.yul\":363:518   */\n      swap2\n      swap1\n      pop\n      jump\t// out\n        /* \"#utility.yul\":524:623   */\n    tag_82:\n        /* \"#utility.yul\":576:582   */\n      0x00\n        /* \"#utility.yul\":610:615   */\n      dup2\n        /* \"#utility.yul\":604:616   */\n      mload\n        /* \"#utility.yul\":594:616   */\n      swap1\n      pop\n        /* \"#utility.yul\":524:623   */\n      swap2\n      swap1\n      pop\n      jump\t// out\n        /* \"#utility.yul\":629:788   */\n    tag_83:\n        /* \"#utility.yul\":703:714   */\n      0x00\n        /* \"#utility.yul\":737:743   */\n      dup3\n        /* \"#utility.yul\":732:735   */\n      dup3\n        /* \"#utility.yul\":725:744   */\n      mstore\n        /* \"#utility.yul\":777:781   */\n      0x20\n        /* \"#utility.yul\":772:775   */\n      dup3\n        /* \"#utility.yul\":768:782   */\n      add\n        /* \"#utility.yul\":753:782   */\n      swap1\n      pop\n        /* \"#utility.yul\":629:788   */\n      swap3\n      swap2\n      pop\n      pop\n      jump\t// out\n        /* \"#utility.yul\":794:933   */\n    tag_84:\n        /* \"#utility.yul\":883:889   */\n      dup3\n        /* \"#utility.yul\":878:881   */\n      dup2\n        /* \"#utility.yul\":873:876   */\n      dup4\n        /* \"#utility.yul\":867:890   */\n      mcopy\n        /* \"#utility.yul\":924:925   */\n      0x00\n        /* \"#utility.yul\":915:921   */\n      dup4\n        /* \"#utility.yul\":910:913   */\n      dup4\n        /* \"#utility.yul\":906:922   */\n      add\n        /* \"#utility.yul\":899:926   */\n      mstore\n        /* \"#utility.yul\":794:933   */\n      pop\n      pop\n      pop\n      jump\t// out\n        /* \"#utility.yul\":939:1041   */\n    tag_85:\n        /* \"#utility.yul\":980:986   */\n      0x00\n        /* \"#utility.yul\":1031:1033   */\n      0x1f\n        /* \"#utility.yul\":1027:1034   */\n      not\n        /* \"#utility.yul\":1022:1024   */\n      0x1f\n        /* \"#utility.yul\":1015:1020   */\n      dup4\n        /* \"#utility.yul\":1011:1025   */\n      add\n        /* \"#utility.yul\":1007:1035   */\n      and\n        /* \"#utility.yul\":997:1035   */\n      swap1\n      pop\n        /* \"#utility.yul\":939:1041   */\n      swap2\n      swap1\n      pop\n      jump\t// out\n        /* \"#utility.yul\":1047:1404   */\n    tag_86:\n        /* \"#utility.yul\":1125:1128   */\n      0x00\n        /* \"#utility.yul\":1153:1192   */\n      tag_143\n        /* \"#utility.yul\":1186:1191   */\n      dup3\n        /* \"#utility.yul\":1153:1192   */\n      tag_82\n      jump\t// in\n    tag_143:\n        /* \"#utility.yul\":1208:1269   */\n      tag_144\n        /* \"#utility.yul\":1262:1268   */\n      dup2\n        /* \"#utility.yul\":1257:1260   */\n      dup6\n        /* \"#utility.yul\":1208:1269   */\n      tag_83\n      jump\t// in\n    tag_144:\n        /* \"#utility.yul\":1201:1269   */\n      swap4\n      pop\n        /* \"#utility.yul\":1278:1343   */\n      tag_145\n        /* \"#utility.yul\":1336:1342   */\n      dup2\n        /* \"#utility.yul\":1331:1334   */\n      dup6\n        /* \"#utility.yul\":1324:1328   */\n      0x20\n        /* \"#utility.yul\":1317:1322   */\n      dup7\n        /* \"#utility.yul\":1313:1329   */\n      add\n        /* \"#utility.yul\":1278:1343   */\n      tag_84\n      jump\t// in\n    tag_145:\n        /* \"#utility.yul\":1368:1397   */\n      tag_146\n        /* \"#utility.yul\":1390:1396   */\n      dup2\n        /* \"#utility.yul\":1368:1397   */\n      tag_85\n      jump\t// in\n    tag_146:\n        /* \"#utility.yul\":1363:1366   */\n      dup5\n        /* \"#utility.yul\":1359:1398   */\n      add\n        /* \"#utility.yul\":1352:1398   */\n      swap2\n      pop\n        /* \"#utility.yul\":1129:1404   */\n      pop\n        /* \"#utility.yul\":1047:1404   */\n      swap3\n      swap2\n      pop\n      pop\n      jump\t// out\n        /* \"#utility.yul\":1410:1487   */\n    tag_87:\n        /* \"#utility.yul\":1447:1454   */\n      0x00\n        /* \"#utility.yul\":1476:1481   */\n      dup2\n        /* \"#utility.yul\":1465:1481   */\n      swap1\n      pop\n        /* \"#utility.yul\":1410:1487   */\n      swap2\n      swap1\n      pop\n      jump\t// out\n        /* \"#utility.yul\":1493:1601   */\n    tag_88:\n        /* \"#utility.yul\":1570:1594   */\n      tag_149\n        /* \"#utility.yul\":1588:1593   */\n      dup2\n        /* \"#utility.yul\":1570:1594   */\n      tag_87\n      jump\t// in\n    tag_149:\n        /* \"#utility.yul\":1565:1568   */\n      dup3\n        /* \"#utility.yul\":1558:1595   */\n      mstore\n        /* \"#utility.yul\":1493:1601   */\n      pop\n      pop\n      jump\t// out\n        /* \"#utility.yul\":1667:2260   */\n    tag_89:\n        /* \"#utility.yul\":1772:1775   */\n      0x00\n        /* \"#utility.yul\":1808:1812   */\n      0x40\n        /* \"#utility.yul\":1803:1806   */\n      dup4\n        /* \"#utility.yul\":1799:1813   */\n      add\n        /* \"#utility.yul\":1895:1899   */\n      0x00\n        /* \"#utility.yul\":1888:1893   */\n      dup4\n        /* \"#utility.yul\":1884:1900   */\n      add\n        /* \"#utility.yul\":1878:1901   */\n      mload\n        /* \"#utility.yul\":1948:1951   */\n      dup5\n        /* \"#utility.yul\":1942:1946   */\n      dup3\n        /* \"#utility.yul\":1938:1952   */\n      sub\n        /* \"#utility.yul\":1931:1935   */\n      0x00\n        /* \"#utility.yul\":1926:1929   */\n      dup7\n        /* \"#utility.yul\":1922:1936   */\n      add\n        /* \"#utility.yul\":1915:1953   */\n      mstore\n        /* \"#utility.yul\":1974:2047   */\n      tag_151\n        /* \"#utility.yul\":2042:2046   */\n      dup3\n        /* \"#utility.yul\":2028:2040   */\n      dup3\n        /* \"#utility.yul\":1974:2047   */\n      tag_86\n      jump\t// in\n    tag_151:\n        /* \"#utility.yul\":1966:2047   */\n      swap2\n      pop\n        /* \"#utility.yul\":1823:2058   */\n      pop\n        /* \"#utility.yul\":2141:2145   */\n      0x20\n        /* \"#utility.yul\":2134:2139   */\n      dup4\n        /* \"#utility.yul\":2130:2146   */\n      add\n        /* \"#utility.yul\":2124:2147   */\n      mload\n        /* \"#utility.yul\":2160:2223   */\n      tag_152\n        /* \"#utility.yul\":2217:2221   */\n      0x20\n        /* \"#utility.yul\":2212:2215   */\n      dup7\n        /* \"#utility.yul\":2208:2222   */\n      add\n        /* \"#utility.yul\":2194:2206   */\n      dup3\n        /* \"#utility.yul\":2160:2223   */\n      tag_88\n      jump\t// in\n    tag_152:\n        /* \"#utility.yul\":2068:2233   */\n      pop\n        /* \"#utility.yul\":2250:2254   */\n      dup1\n        /* \"#utility.yul\":2243:2254   */\n      swap2\n      pop\n        /* \"#utility.yul\":1777:2260   */\n      pop\n        /* \"#utility.yul\":1667:2260   */\n      swap3\n      swap2\n      pop\n      pop\n      jump\t// out\n        /* \"#utility.yul\":2266:2514   */\n    tag_90:\n        /* \"#utility.yul\":2381:2391   */\n      0x00\n        /* \"#utility.yul\":2416:2508   */\n      tag_154\n        /* \"#utility.yul\":2504:2507   */\n      dup4\n        /* \"#utility.yul\":2496:2502   */\n      dup4\n        /* \"#utility.yul\":2416:2508   */\n      tag_89\n      jump\t// in\n    tag_154:\n        /* \"#utility.yul\":2402:2508   */\n      swap1\n      pop\n        /* \"#utility.yul\":2266:2514   */\n      swap3\n      swap2\n      pop\n      pop\n      jump\t// out\n        /* \"#utility.yul\":2520:2656   */\n    tag_91:\n        /* \"#utility.yul\":2613:2617   */\n      0x00\n        /* \"#utility.yul\":2645:2649   */\n      0x20\n        /* \"#utility.yul\":2640:2643   */\n      dup3\n        /* \"#utility.yul\":2636:2650   */\n      add\n        /* \"#utility.yul\":2628:2650   */\n      swap1\n      pop\n        /* \"#utility.yul\":2520:2656   */\n      swap2\n      swap1\n      pop\n      jump\t// out\n        /* \"#utility.yul\":2726:3821   */\n    tag_92:\n        /* \"#utility.yul\":2891:2894   */\n      0x00\n        /* \"#utility.yul\":2920:2997   */\n      tag_157\n        /* \"#utility.yul\":2991:2996   */\n      dup3\n        /* \"#utility.yul\":2920:2997   */\n      tag_79\n      jump\t// in\n    tag_157:\n        /* \"#utility.yul\":3013:3122   */\n      tag_158\n        /* \"#utility.yul\":3115:3121   */\n      dup2\n        /* \"#utility.yul\":3110:3113   */\n      dup6\n        /* \"#utility.yul\":3013:3122   */\n      tag_80\n      jump\t// in\n    tag_158:\n        /* \"#utility.yul\":3006:3122   */\n      swap4\n      pop\n        /* \"#utility.yul\":3148:3151   */\n      dup4\n        /* \"#utility.yul\":3193:3197   */\n      0x20\n        /* \"#utility.yul\":3185:3191   */\n      dup3\n        /* \"#utility.yul\":3181:3198   */\n      mul\n        /* \"#utility.yul\":3176:3179   */\n      dup6\n        /* \"#utility.yul\":3172:3199   */\n      add\n        /* \"#utility.yul\":3223:3302   */\n      tag_159\n        /* \"#utility.yul\":3296:3301   */\n      dup6\n        /* \"#utility.yul\":3223:3302   */\n      tag_81\n      jump\t// in\n    tag_159:\n        /* \"#utility.yul\":3325:3332   */\n      dup1\n        /* \"#utility.yul\":3356:3357   */\n      0x00\n        /* \"#utility.yul\":3341:3776   */\n    tag_160:\n        /* \"#utility.yul\":3366:3372   */\n      dup6\n        /* \"#utility.yul\":3363:3364   */\n      dup2\n        /* \"#utility.yul\":3360:3373   */\n      lt\n        /* \"#utility.yul\":3341:3776   */\n      iszero\n      tag_162\n      jumpi\n        /* \"#utility.yul\":3437:3446   */\n      dup5\n        /* \"#utility.yul\":3431:3435   */\n      dup5\n        /* \"#utility.yul\":3427:3447   */\n      sub\n        /* \"#utility.yul\":3422:3425   */\n      dup10\n        /* \"#utility.yul\":3415:3448   */\n      mstore\n        /* \"#utility.yul\":3488:3494   */\n      dup2\n        /* \"#utility.yul\":3482:3495   */\n      mload\n        /* \"#utility.yul\":3516:3626   */\n      tag_163\n        /* \"#utility.yul\":3621:3625   */\n      dup6\n        /* \"#utility.yul\":3606:3619   */\n      dup3\n        /* \"#utility.yul\":3516:3626   */\n      tag_90\n      jump\t// in\n    tag_163:\n        /* \"#utility.yul\":3508:3626   */\n      swap5\n      pop\n        /* \"#utility.yul\":3649:3732   */\n      tag_164\n        /* \"#utility.yul\":3725:3731   */\n      dup4\n        /* \"#utility.yul\":3649:3732   */\n      tag_91\n      jump\t// in\n    tag_164:\n        /* \"#utility.yul\":3639:3732   */\n      swap3\n      pop\n        /* \"#utility.yul\":3761:3765   */\n      0x20\n        /* \"#utility.yul\":3756:3759   */\n      dup11\n        /* \"#utility.yul\":3752:3766   */\n      add\n        /* \"#utility.yul\":3745:3766   */\n      swap10\n      pop\n        /* \"#utility.yul\":3401:3776   */\n      pop\n        /* \"#utility.yul\":3388:3389   */\n      0x01\n        /* \"#utility.yul\":3385:3386   */\n      dup2\n        /* \"#utility.yul\":3381:3390   */\n      add\n        /* \"#utility.yul\":3376:3390   */\n      swap1\n      pop\n        /* \"#utility.yul\":3341:3776   */\n      jump(tag_160)\n    tag_162:\n        /* \"#utility.yul\":3345:3359   */\n      pop\n        /* \"#utility.yul\":3792:3796   */\n      dup3\n        /* \"#utility.yul\":3785:3796   */\n      swap8\n      pop\n        /* \"#utility.yul\":3812:3815   */\n      dup8\n        /* \"#utility.yul\":3805:3815   */\n      swap6\n      pop\n        /* \"#utility.yul\":2896:3821   */\n      pop\n      pop\n      pop\n      pop\n      pop\n        /* \"#utility.yul\":2726:3821   */\n      swap3\n      swap2\n      pop\n      pop\n      jump\t// out\n        /* \"#utility.yul\":3827:4292   */\n    tag_10:\n        /* \"#utility.yul\":4016:4020   */\n      0x00\n        /* \"#utility.yul\":4054:4056   */\n      0x20\n        /* \"#utility.yul\":4043:4052   */\n      dup3\n        /* \"#utility.yul\":4039:4057   */\n      add\n        /* \"#utility.yul\":4031:4057   */\n      swap1\n      pop\n        /* \"#utility.yul\":4103:4112   */\n      dup2\n        /* \"#utility.yul\":4097:4101   */\n      dup2\n        /* \"#utility.yul\":4093:4113   */\n      sub\n        /* \"#utility.yul\":4089:4090   */\n      0x00\n        /* \"#utility.yul\":4078:4087   */\n      dup4\n        /* \"#utility.yul\":4074:4091   */\n      add\n        /* \"#utility.yul\":4067:4114   */\n      mstore\n        /* \"#utility.yul\":4131:4285   */\n      tag_166\n        /* \"#utility.yul\":4280:4284   */\n      dup2\n        /* \"#utility.yul\":4271:4277   */\n      dup5\n        /* \"#utility.yul\":4131:4285   */\n      tag_92\n      jump\t// in\n    tag_166:\n        /* \"#utility.yul\":4123:4285   */\n      swap1\n      pop\n        /* \"#utility.yul\":3827:4292   */\n      swap3\n      swap2\n      pop\n      pop\n      jump\t// out\n        /* \"#utility.yul\":4298:4373   */\n    tag_93:\n        /* \"#utility.yul\":4331:4337   */\n      0x00\n        /* \"#utility.yul\":4364:4366   */\n      0x40\n        /* \"#utility.yul\":4358:4367   */\n      mload\n        /* \"#utility.yul\":4348:4367   */\n      swap1\n      pop\n        /* \"#utility.yul\":4298:4373   */\n      swap1\n      jump\t// out\n        /* \"#utility.yul\":4379:4496   */\n    tag_94:\n        /* \"#utility.yul\":4488:4489   */\n      0x00\n        /* \"#utility.yul\":4485:4486   */\n      dup1\n        /* \"#utility.yul\":4478:4490   */\n      revert\n        /* \"#utility.yul\":4502:4619   */\n    tag_95:\n        /* \"#utility.yul\":4611:4612   */\n      0x00\n        /* \"#utility.yul\":4608:4609   */\n      dup1\n        /* \"#utility.yul\":4601:4613   */\n      revert\n        /* \"#utility.yul\":4625:4742   */\n    tag_96:\n        /* \"#utility.yul\":4734:4735   */\n      0x00\n        /* \"#utility.yul\":4731:4732   */\n      dup1\n        /* \"#utility.yul\":4724:4736   */\n      revert\n        /* \"#utility.yul\":4748:4865   */\n    tag_97:\n        /* \"#utility.yul\":4857:4858   */\n      0x00\n        /* \"#utility.yul\":4854:4855   */\n      dup1\n        /* \"#utility.yul\":4847:4859   */\n      revert\n        /* \"#utility.yul\":4871:5051   */\n    tag_98:\n        /* \"#utility.yul\":4919:4996   */\n      0x4e487b7100000000000000000000000000000000000000000000000000000000\n        /* \"#utility.yul\":4916:4917   */\n      0x00\n        /* \"#utility.yul\":4909:4997   */\n      mstore\n        /* \"#utility.yul\":5016:5020   */\n      0x41\n        /* \"#utility.yul\":5013:5014   */\n      0x04\n        /* \"#utility.yul\":5006:5021   */\n      mstore\n        /* \"#utility.yul\":5040:5044   */\n      0x24\n        /* \"#utility.yul\":5037:5038   */\n      0x00\n        /* \"#utility.yul\":5030:5045   */\n      revert\n        /* \"#utility.yul\":5057:5338   */\n    tag_99:\n        /* \"#utility.yul\":5140:5167   */\n      tag_174\n        /* \"#utility.yul\":5162:5166   */\n      dup3\n        /* \"#utility.yul\":5140:5167   */\n      tag_85\n      jump\t// in\n    tag_174:\n        /* \"#utility.yul\":5132:5138   */\n      dup2\n        /* \"#utility.yul\":5128:5168   */\n      add\n        /* \"#utility.yul\":5270:5276   */\n      dup2\n        /* \"#utility.yul\":5258:5268   */\n      dup2\n        /* \"#utility.yul\":5255:5277   */\n      lt\n        /* \"#utility.yul\":5234:5252   */\n      0xffffffffffffffff\n        /* \"#utility.yul\":5222:5232   */\n      dup3\n        /* \"#utility.yul\":5219:5253   */\n      gt\n        /* \"#utility.yul\":5216:5278   */\n      or\n        /* \"#utility.yul\":5213:5301   */\n      iszero\n      tag_175\n      jumpi\n        /* \"#utility.yul\":5281:5299   */\n      tag_176\n      tag_98\n      jump\t// in\n    tag_176:\n        /* \"#utility.yul\":5213:5301   */\n    tag_175:\n        /* \"#utility.yul\":5321:5331   */\n      dup1\n        /* \"#utility.yul\":5317:5319   */\n      0x40\n        /* \"#utility.yul\":5310:5332   */\n      mstore\n        /* \"#utility.yul\":5100:5338   */\n      pop\n        /* \"#utility.yul\":5057:5338   */\n      pop\n      pop\n      jump\t// out\n        /* \"#utility.yul\":5344:5473   */\n    tag_100:\n        /* \"#utility.yul\":5378:5384   */\n      0x00\n        /* \"#utility.yul\":5405:5425   */\n      tag_178\n      tag_93\n      jump\t// in\n    tag_178:\n        /* \"#utility.yul\":5395:5425   */\n      swap1\n      pop\n        /* \"#utility.yul\":5434:5467   */\n      tag_179\n        /* \"#utility.yul\":5462:5466   */\n      dup3\n        /* \"#utility.yul\":5454:5460   */\n      dup3\n        /* \"#utility.yul\":5434:5467   */\n      tag_99\n      jump\t// in\n    tag_179:\n        /* \"#utility.yul\":5344:5473   */\n      swap2\n      swap1\n      pop\n      jump\t// out\n        /* \"#utility.yul\":5479:5787   */\n    tag_101:\n        /* \"#utility.yul\":5541:5545   */\n      0x00\n        /* \"#utility.yul\":5631:5649   */\n      0xffffffffffffffff\n        /* \"#utility.yul\":5623:5629   */\n      dup3\n        /* \"#utility.yul\":5620:5650   */\n      gt\n        /* \"#utility.yul\":5617:5673   */\n      iszero\n      tag_181\n      jumpi\n        /* \"#utility.yul\":5653:5671   */\n      tag_182\n      tag_98\n      jump\t// in\n    tag_182:\n        /* \"#utility.yul\":5617:5673   */\n    tag_181:\n        /* \"#utility.yul\":5691:5720   */\n      tag_183\n        /* \"#utility.yul\":5713:5719   */\n      dup3\n        /* \"#utility.yul\":5691:5720   */\n      tag_85\n      jump\t// in\n    tag_183:\n        /* \"#utility.yul\":5683:5720   */\n      swap1\n      pop\n        /* \"#utility.yul\":5775:5779   */\n      0x20\n        /* \"#utility.yul\":5769:5773   */\n      dup2\n        /* \"#utility.yul\":5765:5780   */\n      add\n        /* \"#utility.yul\":5757:5780   */\n      swap1\n      pop\n        /* \"#utility.yul\":5479:5787   */\n      swap2\n      swap1\n      pop\n      jump\t// out\n        /* \"#utility.yul\":5793:5941   */\n    tag_102:\n        /* \"#utility.yul\":5891:5897   */\n      dup3\n        /* \"#utility.yul\":5886:5889   */\n      dup2\n        /* \"#utility.yul\":5881:5884   */\n      dup4\n        /* \"#utility.yul\":5868:5898   */\n      calldatacopy\n        /* \"#utility.yul\":5932:5933   */\n      0x00\n        /* \"#utility.yul\":5923:5929   */\n      dup4\n        /* \"#utility.yul\":5918:5921   */\n      dup4\n        /* \"#utility.yul\":5914:5930   */\n      add\n        /* \"#utility.yul\":5907:5934   */\n      mstore\n        /* \"#utility.yul\":5793:5941   */\n      pop\n      pop\n      pop\n      jump\t// out\n        /* \"#utility.yul\":5947:6372   */\n    tag_103:\n        /* \"#utility.yul\":6025:6030   */\n      0x00\n        /* \"#utility.yul\":6050:6116   */\n      tag_186\n        /* \"#utility.yul\":6066:6115   */\n      tag_187\n        /* \"#utility.yul\":6108:6114   */\n      dup5\n        /* \"#utility.yul\":6066:6115   */\n      tag_101\n      jump\t// in\n    tag_187:\n        /* \"#utility.yul\":6050:6116   */\n      tag_100\n      jump\t// in\n    tag_186:\n        /* \"#utility.yul\":6041:6116   */\n      swap1\n      pop\n        /* \"#utility.yul\":6139:6145   */\n      dup3\n        /* \"#utility.yul\":6132:6137   */\n      dup2\n        /* \"#utility.yul\":6125:6146   */\n      mstore\n        /* \"#utility.yul\":6177:6181   */\n      0x20\n        /* \"#utility.yul\":6170:6175   */\n      dup2\n        /* \"#utility.yul\":6166:6182   */\n      add\n        /* \"#utility.yul\":6215:6218   */\n      dup5\n        /* \"#utility.yul\":6206:6212   */\n      dup5\n        /* \"#utility.yul\":6201:6204   */\n      dup5\n        /* \"#utility.yul\":6197:6213   */\n      add\n        /* \"#utility.yul\":6194:6219   */\n      gt\n        /* \"#utility.yul\":6191:6303   */\n      iszero\n      tag_188\n      jumpi\n        /* \"#utility.yul\":6222:6301   */\n      tag_189\n      tag_97\n      jump\t// in\n    tag_189:\n        /* \"#utility.yul\":6191:6303   */\n    tag_188:\n        /* \"#utility.yul\":6312:6366   */\n      tag_190\n        /* \"#utility.yul\":6359:6365   */\n      dup5\n        /* \"#utility.yul\":6354:6357   */\n      dup3\n        /* \"#utility.yul\":6349:6352   */\n      dup6\n        /* \"#utility.yul\":6312:6366   */\n      tag_102\n      jump\t// in\n    tag_190:\n        /* \"#utility.yul\":6031:6372   */\n      pop\n        /* \"#utility.yul\":5947:6372   */\n      swap4\n      swap3\n      pop\n      pop\n      pop\n      jump\t// out\n        /* \"#utility.yul\":6392:6732   */\n    tag_104:\n        /* \"#utility.yul\":6448:6453   */\n      0x00\n        /* \"#utility.yul\":6497:6500   */\n      dup3\n        /* \"#utility.yul\":6490:6494   */\n      0x1f\n        /* \"#utility.yul\":6482:6488   */\n      dup4\n        /* \"#utility.yul\":6478:6495   */\n      add\n        /* \"#utility.yul\":6474:6501   */\n      slt\n        /* \"#utility.yul\":6464:6586   */\n      tag_192\n      jumpi\n        /* \"#utility.yul\":6505:6584   */\n      tag_193\n      tag_96\n      jump\t// in\n    tag_193:\n        /* \"#utility.yul\":6464:6586   */\n    tag_192:\n        /* \"#utility.yul\":6622:6628   */\n      dup2\n        /* \"#utility.yul\":6609:6629   */\n      calldataload\n        /* \"#utility.yul\":6647:6726   */\n      tag_194\n        /* \"#utility.yul\":6722:6725   */\n      dup5\n        /* \"#utility.yul\":6714:6720   */\n      dup3\n        /* \"#utility.yul\":6707:6711   */\n      0x20\n        /* \"#utility.yul\":6699:6705   */\n      dup7\n        /* \"#utility.yul\":6695:6712   */\n      add\n        /* \"#utility.yul\":6647:6726   */\n      tag_103\n      jump\t// in\n    tag_194:\n        /* \"#utility.yul\":6638:6726   */\n      swap2\n      pop\n        /* \"#utility.yul\":6454:6732   */\n      pop\n        /* \"#utility.yul\":6392:6732   */\n      swap3\n      swap2\n      pop\n      pop\n      jump\t// out\n        /* \"#utility.yul\":6738:6860   */\n    tag_105:\n        /* \"#utility.yul\":6811:6835   */\n      tag_196\n        /* \"#utility.yul\":6829:6834   */\n      dup2\n        /* \"#utility.yul\":6811:6835   */\n      tag_87\n      jump\t// in\n    tag_196:\n        /* \"#utility.yul\":6804:6809   */\n      dup2\n        /* \"#utility.yul\":6801:6836   */\n      eq\n        /* \"#utility.yul\":6791:6854   */\n      tag_197\n      jumpi\n        /* \"#utility.yul\":6850:6851   */\n      0x00\n        /* \"#utility.yul\":6847:6848   */\n      dup1\n        /* \"#utility.yul\":6840:6852   */\n      revert\n        /* \"#utility.yul\":6791:6854   */\n    tag_197:\n        /* \"#utility.yul\":6738:6860   */\n      pop\n      jump\t// out\n        /* \"#utility.yul\":6866:7005   */\n    tag_106:\n        /* \"#utility.yul\":6912:6917   */\n      0x00\n        /* \"#utility.yul\":6950:6956   */\n      dup2\n        /* \"#utility.yul\":6937:6957   */\n      calldataload\n        /* \"#utility.yul\":6928:6957   */\n      swap1\n      pop\n        /* \"#utility.yul\":6966:6999   */\n      tag_199\n        /* \"#utility.yul\":6993:6998   */\n      dup2\n        /* \"#utility.yul\":6966:6999   */\n      tag_105\n      jump\t// in\n    tag_199:\n        /* \"#utility.yul\":6866:7005   */\n      swap3\n      swap2\n      pop\n      pop\n      jump\t// out\n        /* \"#utility.yul\":7011:7665   */\n    tag_13:\n        /* \"#utility.yul\":7089:7095   */\n      0x00\n        /* \"#utility.yul\":7097:7103   */\n      dup1\n        /* \"#utility.yul\":7146:7148   */\n      0x40\n        /* \"#utility.yul\":7134:7143   */\n      dup4\n        /* \"#utility.yul\":7125:7132   */\n      dup6\n        /* \"#utility.yul\":7121:7144   */\n      sub\n        /* \"#utility.yul\":7117:7149   */\n      slt\n        /* \"#utility.yul\":7114:7233   */\n      iszero\n      tag_201\n      jumpi\n        /* \"#utility.yul\":7152:7231   */\n      tag_202\n      tag_94\n      jump\t// in\n    tag_202:\n        /* \"#utility.yul\":7114:7233   */\n    tag_201:\n        /* \"#utility.yul\":7300:7301   */\n      0x00\n        /* \"#utility.yul\":7289:7298   */\n      dup4\n        /* \"#utility.yul\":7285:7302   */\n      add\n        /* \"#utility.yul\":7272:7303   */\n      calldataload\n        /* \"#utility.yul\":7330:7348   */\n      0xffffffffffffffff\n        /* \"#utility.yul\":7322:7328   */\n      dup2\n        /* \"#utility.yul\":7319:7349   */\n      gt\n        /* \"#utility.yul\":7316:7433   */\n      iszero\n      tag_203\n      jumpi\n        /* \"#utility.yul\":7352:7431   */\n      tag_204\n      tag_95\n      jump\t// in\n    tag_204:\n        /* \"#utility.yul\":7316:7433   */\n    tag_203:\n        /* \"#utility.yul\":7457:7520   */\n      tag_205\n        /* \"#utility.yul\":7512:7519   */\n      dup6\n        /* \"#utility.yul\":7503:7509   */\n      dup3\n        /* \"#utility.yul\":7492:7501   */\n      dup7\n        /* \"#utility.yul\":7488:7510   */\n      add\n        /* \"#utility.yul\":7457:7520   */\n      tag_104\n      jump\t// in\n    tag_205:\n        /* \"#utility.yul\":7447:7520   */\n      swap3\n      pop\n        /* \"#utility.yul\":7243:7530   */\n      pop\n        /* \"#utility.yul\":7569:7571   */\n      0x20\n        /* \"#utility.yul\":7595:7648   */\n      tag_206\n        /* \"#utility.yul\":7640:7647   */\n      dup6\n        /* \"#utility.yul\":7631:7637   */\n      dup3\n        /* \"#utility.yul\":7620:7629   */\n      dup7\n        /* \"#utility.yul\":7616:7638   */\n      add\n        /* \"#utility.yul\":7595:7648   */\n      tag_106\n      jump\t// in\n    tag_206:\n        /* \"#utility.yul\":7585:7648   */\n      swap2\n      pop\n        /* \"#utility.yul\":7540:7658   */\n      pop\n        /* \"#utility.yul\":7011:7665   */\n      swap3\n      pop\n      swap3\n      swap1\n      pop\n      jump\t// out\n        /* \"#utility.yul\":7671:8000   */\n    tag_17:\n        /* \"#utility.yul\":7730:7736   */\n      0x00\n        /* \"#utility.yul\":7779:7781   */\n      0x20\n        /* \"#utility.yul\":7767:7776   */\n      dup3\n        /* \"#utility.yul\":7758:7765   */\n      dup5\n        /* \"#utility.yul\":7754:7777   */\n      sub\n        /* \"#utility.yul\":7750:7782   */\n      slt\n        /* \"#utility.yul\":7747:7866   */\n      iszero\n      tag_208\n      jumpi\n        /* \"#utility.yul\":7785:7864   */\n      tag_209\n      tag_94\n      jump\t// in\n    tag_209:\n        /* \"#utility.yul\":7747:7866   */\n    tag_208:\n        /* \"#utility.yul\":7905:7906   */\n      0x00\n        /* \"#utility.yul\":7930:7983   */\n      tag_210\n        /* \"#utility.yul\":7975:7982   */\n      dup5\n        /* \"#utility.yul\":7966:7972   */\n      dup3\n        /* \"#utility.yul\":7955:7964   */\n      dup6\n        /* \"#utility.yul\":7951:7973   */\n      add\n        /* \"#utility.yul\":7930:7983   */\n      tag_106\n      jump\t// in\n    tag_210:\n        /* \"#utility.yul\":7920:7983   */\n      swap2\n      pop\n        /* \"#utility.yul\":7876:7993   */\n      pop\n        /* \"#utility.yul\":7671:8000   */\n      swap3\n      swap2\n      pop\n      pop\n      jump\t// out\n        /* \"#utility.yul\":8006:8132   */\n    tag_107:\n        /* \"#utility.yul\":8043:8050   */\n      0x00\n        /* \"#utility.yul\":8083:8125   */\n      0xffffffffffffffffffffffffffffffffffffffff\n        /* \"#utility.yul\":8076:8081   */\n      dup3\n        /* \"#utility.yul\":8072:8126   */\n      and\n        /* \"#utility.yul\":8061:8126   */\n      swap1\n      pop\n        /* \"#utility.yul\":8006:8132   */\n      swap2\n      swap1\n      pop\n      jump\t// out\n        /* \"#utility.yul\":8138:8234   */\n    tag_108:\n        /* \"#utility.yul\":8175:8182   */\n      0x00\n        /* \"#utility.yul\":8204:8228   */\n      tag_213\n        /* \"#utility.yul\":8222:8227   */\n      dup3\n        /* \"#utility.yul\":8204:8228   */\n      tag_107\n      jump\t// in\n    tag_213:\n        /* \"#utility.yul\":8193:8228   */\n      swap1\n      pop\n        /* \"#utility.yul\":8138:8234   */\n      swap2\n      swap1\n      pop\n      jump\t// out\n        /* \"#utility.yul\":8240:8362   */\n    tag_109:\n        /* \"#utility.yul\":8313:8337   */\n      tag_215\n        /* \"#utility.yul\":8331:8336   */\n      dup2\n        /* \"#utility.yul\":8313:8337   */\n      tag_108\n      jump\t// in\n    tag_215:\n        /* \"#utility.yul\":8306:8311   */\n      dup2\n        /* \"#utility.yul\":8303:8338   */\n      eq\n        /* \"#utility.yul\":8293:8356   */\n      tag_216\n      jumpi\n        /* \"#utility.yul\":8352:8353   */\n      0x00\n        /* \"#utility.yul\":8349:8350   */\n      dup1\n        /* \"#utility.yul\":8342:8354   */\n      revert\n        /* \"#utility.yul\":8293:8356   */\n    tag_216:\n        /* \"#utility.yul\":8240:8362   */\n      pop\n      jump\t// out\n        /* \"#utility.yul\":8368:8507   */\n    tag_110:\n        /* \"#utility.yul\":8414:8419   */\n      0x00\n        /* \"#utility.yul\":8452:8458   */\n      dup2\n        /* \"#utility.yul\":8439:8459   */\n      calldataload\n        /* \"#utility.yul\":8430:8459   */\n      swap1\n      pop\n        /* \"#utility.yul\":8468:8501   */\n      tag_218\n        /* \"#utility.yul\":8495:8500   */\n      dup2\n        /* \"#utility.yul\":8468:8501   */\n      tag_109\n      jump\t// in\n    tag_218:\n        /* \"#utility.yul\":8368:8507   */\n      swap3\n      swap2\n      pop\n      pop\n      jump\t// out\n        /* \"#utility.yul\":8513:8987   */\n    tag_21:\n        /* \"#utility.yul\":8581:8587   */\n      0x00\n        /* \"#utility.yul\":8589:8595   */\n      dup1\n        /* \"#utility.yul\":8638:8640   */\n      0x40\n        /* \"#utility.yul\":8626:8635   */\n      dup4\n        /* \"#utility.yul\":8617:8624   */\n      dup6\n        /* \"#utility.yul\":8613:8636   */\n      sub\n        /* \"#utility.yul\":8609:8641   */\n      slt\n        /* \"#utility.yul\":8606:8725   */\n      iszero\n      tag_220\n      jumpi\n        /* \"#utility.yul\":8644:8723   */\n      tag_221\n      tag_94\n      jump\t// in\n    tag_221:\n        /* \"#utility.yul\":8606:8725   */\n    tag_220:\n        /* \"#utility.yul\":8764:8765   */\n      0x00\n        /* \"#utility.yul\":8789:8842   */\n      tag_222\n        /* \"#utility.yul\":8834:8841   */\n      dup6\n        /* \"#utility.yul\":8825:8831   */\n      dup3\n        /* \"#utility.yul\":8814:8823   */\n      dup7\n        /* \"#utility.yul\":8810:8832   */\n      add\n        /* \"#utility.yul\":8789:8842   */\n      tag_110\n      jump\t// in\n    tag_222:\n        /* \"#utility.yul\":8779:8842   */\n      swap3\n      pop\n        /* \"#utility.yul\":8735:8852   */\n      pop\n        /* \"#utility.yul\":8891:8893   */\n      0x20\n        /* \"#utility.yul\":8917:8970   */\n      tag_223\n        /* \"#utility.yul\":8962:8969   */\n      dup6\n        /* \"#utility.yul\":8953:8959   */\n      dup3\n        /* \"#utility.yul\":8942:8951   */\n      dup7\n        /* \"#utility.yul\":8938:8960   */\n      add\n        /* \"#utility.yul\":8917:8970   */\n      tag_106\n      jump\t// in\n    tag_223:\n        /* \"#utility.yul\":8907:8970   */\n      swap2\n      pop\n        /* \"#utility.yul\":8862:8980   */\n      pop\n        /* \"#utility.yul\":8513:8987   */\n      swap3\n      pop\n      swap3\n      swap1\n      pop\n      jump\t// out\n        /* \"#utility.yul\":8993:9162   */\n    tag_111:\n        /* \"#utility.yul\":9077:9088   */\n      0x00\n        /* \"#utility.yul\":9111:9117   */\n      dup3\n        /* \"#utility.yul\":9106:9109   */\n      dup3\n        /* \"#utility.yul\":9099:9118   */\n      mstore\n        /* \"#utility.yul\":9151:9155   */\n      0x20\n        /* \"#utility.yul\":9146:9149   */\n      dup3\n        /* \"#utility.yul\":9142:9156   */\n      add\n        /* \"#utility.yul\":9127:9156   */\n      swap1\n      pop\n        /* \"#utility.yul\":8993:9162   */\n      swap3\n      swap2\n      pop\n      pop\n      jump\t// out\n        /* \"#utility.yul\":9168:9545   */\n    tag_112:\n        /* \"#utility.yul\":9256:9259   */\n      0x00\n        /* \"#utility.yul\":9284:9323   */\n      tag_226\n        /* \"#utility.yul\":9317:9322   */\n      dup3\n        /* \"#utility.yul\":9284:9323   */\n      tag_82\n      jump\t// in\n    tag_226:\n        /* \"#utility.yul\":9339:9410   */\n      tag_227\n        /* \"#utility.yul\":9403:9409   */\n      dup2\n        /* \"#utility.yul\":9398:9401   */\n      dup6\n        /* \"#utility.yul\":9339:9410   */\n      tag_111\n      jump\t// in\n    tag_227:\n        /* \"#utility.yul\":9332:9410   */\n      swap4\n      pop\n        /* \"#utility.yul\":9419:9484   */\n      tag_228\n        /* \"#utility.yul\":9477:9483   */\n      dup2\n        /* \"#utility.yul\":9472:9475   */\n      dup6\n        /* \"#utility.yul\":9465:9469   */\n      0x20\n        /* \"#utility.yul\":9458:9463   */\n      dup7\n        /* \"#utility.yul\":9454:9470   */\n      add\n        /* \"#utility.yul\":9419:9484   */\n      tag_84\n      jump\t// in\n    tag_228:\n        /* \"#utility.yul\":9509:9538   */\n      tag_229\n        /* \"#utility.yul\":9531:9537   */\n      dup2\n        /* \"#utility.yul\":9509:9538   */\n      tag_85\n      jump\t// in\n    tag_229:\n        /* \"#utility.yul\":9504:9507   */\n      dup5\n        /* \"#utility.yul\":9500:9539   */\n      add\n        /* \"#utility.yul\":9493:9539   */\n      swap2\n      pop\n        /* \"#utility.yul\":9260:9545   */\n      pop\n        /* \"#utility.yul\":9168:9545   */\n      swap3\n      swap2\n      pop\n      pop\n      jump\t// out\n        /* \"#utility.yul\":9551:9669   */\n    tag_113:\n        /* \"#utility.yul\":9638:9662   */\n      tag_231\n        /* \"#utility.yul\":9656:9661   */\n      dup2\n        /* \"#utility.yul\":9638:9662   */\n      tag_87\n      jump\t// in\n    tag_231:\n        /* \"#utility.yul\":9633:9636   */\n      dup3\n        /* \"#utility.yul\":9626:9663   */\n      mstore\n        /* \"#utility.yul\":9551:9669   */\n      pop\n      pop\n      jump\t// out\n        /* \"#utility.yul\":9675:10098   */\n    tag_24:\n        /* \"#utility.yul\":9816:9820   */\n      0x00\n        /* \"#utility.yul\":9854:9856   */\n      0x40\n        /* \"#utility.yul\":9843:9852   */\n      dup3\n        /* \"#utility.yul\":9839:9857   */\n      add\n        /* \"#utility.yul\":9831:9857   */\n      swap1\n      pop\n        /* \"#utility.yul\":9903:9912   */\n      dup2\n        /* \"#utility.yul\":9897:9901   */\n      dup2\n        /* \"#utility.yul\":9893:9913   */\n      sub\n        /* \"#utility.yul\":9889:9890   */\n      0x00\n        /* \"#utility.yul\":9878:9887   */\n      dup4\n        /* \"#utility.yul\":9874:9891   */\n      add\n        /* \"#utility.yul\":9867:9914   */\n      mstore\n        /* \"#utility.yul\":9931:10009   */\n      tag_233\n        /* \"#utility.yul\":10004:10008   */\n      dup2\n        /* \"#utility.yul\":9995:10001   */\n      dup6\n        /* \"#utility.yul\":9931:10009   */\n      tag_112\n      jump\t// in\n    tag_233:\n        /* \"#utility.yul\":9923:10009   */\n      swap1\n      pop\n        /* \"#utility.yul\":10019:10091   */\n      tag_234\n        /* \"#utility.yul\":10087:10089   */\n      0x20\n        /* \"#utility.yul\":10076:10085   */\n      dup4\n        /* \"#utility.yul\":10072:10090   */\n      add\n        /* \"#utility.yul\":10063:10069   */\n      dup5\n        /* \"#utility.yul\":10019:10091   */\n      tag_113\n      jump\t// in\n    tag_234:\n        /* \"#utility.yul\":9675:10098   */\n      swap4\n      swap3\n      pop\n      pop\n      pop\n      jump\t// out\n        /* \"#utility.yul\":10104:10284   */\n    tag_114:\n        /* \"#utility.yul\":10152:10229   */\n      0x4e487b7100000000000000000000000000000000000000000000000000000000\n        /* \"#utility.yul\":10149:10150   */\n      0x00\n        /* \"#utility.yul\":10142:10230   */\n      mstore\n        /* \"#utility.yul\":10249:10253   */\n      0x22\n        /* \"#utility.yul\":10246:10247   */\n      0x04\n        /* \"#utility.yul\":10239:10254   */\n      mstore\n        /* \"#utility.yul\":10273:10277   */\n      0x24\n        /* \"#utility.yul\":10270:10271   */\n      0x00\n        /* \"#utility.yul\":10263:10278   */\n      revert\n        /* \"#utility.yul\":10290:10610   */\n    tag_30:\n        /* \"#utility.yul\":10334:10340   */\n      0x00\n        /* \"#utility.yul\":10371:10372   */\n      0x02\n        /* \"#utility.yul\":10365:10369   */\n      dup3\n        /* \"#utility.yul\":10361:10373   */\n      div\n        /* \"#utility.yul\":10351:10373   */\n      swap1\n      pop\n        /* \"#utility.yul\":10418:10419   */\n      0x01\n        /* \"#utility.yul\":10412:10416   */\n      dup3\n        /* \"#utility.yul\":10408:10420   */\n      and\n        /* \"#utility.yul\":10439:10457   */\n      dup1\n        /* \"#utility.yul\":10429:10510   */\n      tag_237\n      jumpi\n        /* \"#utility.yul\":10495:10499   */\n      0x7f\n        /* \"#utility.yul\":10487:10493   */\n      dup3\n        /* \"#utility.yul\":10483:10500   */\n      and\n        /* \"#utility.yul\":10473:10500   */\n      swap2\n      pop\n        /* \"#utility.yul\":10429:10510   */\n    tag_237:\n        /* \"#utility.yul\":10557:10559   */\n      0x20\n        /* \"#utility.yul\":10549:10555   */\n      dup3\n        /* \"#utility.yul\":10546:10560   */\n      lt\n        /* \"#utility.yul\":10526:10544   */\n      dup2\n        /* \"#utility.yul\":10523:10561   */\n      sub\n        /* \"#utility.yul\":10520:10604   */\n      tag_238\n      jumpi\n        /* \"#utility.yul\":10576:10594   */\n      tag_239\n      tag_114\n      jump\t// in\n    tag_239:\n        /* \"#utility.yul\":10520:10604   */\n    tag_238:\n        /* \"#utility.yul\":10341:10610   */\n      pop\n        /* \"#utility.yul\":10290:10610   */\n      swap2\n      swap1\n      pop\n      jump\t// out\n        /* \"#utility.yul\":10616:10757   */\n    tag_115:\n        /* \"#utility.yul\":10665:10669   */\n      0x00\n        /* \"#utility.yul\":10688:10691   */\n      dup2\n        /* \"#utility.yul\":10680:10691   */\n      swap1\n      pop\n        /* \"#utility.yul\":10711:10714   */\n      dup2\n        /* \"#utility.yul\":10708:10709   */\n      0x00\n        /* \"#utility.yul\":10701:10715   */\n      mstore\n        /* \"#utility.yul\":10745:10749   */\n      0x20\n        /* \"#utility.yul\":10742:10743   */\n      0x00\n        /* \"#utility.yul\":10732:10750   */\n      keccak256\n        /* \"#utility.yul\":10724:10750   */\n      swap1\n      pop\n        /* \"#utility.yul\":10616:10757   */\n      swap2\n      swap1\n      pop\n      jump\t// out\n        /* \"#utility.yul\":10763:10856   */\n    tag_116:\n        /* \"#utility.yul\":10800:10806   */\n      0x00\n        /* \"#utility.yul\":10847:10849   */\n      0x20\n        /* \"#utility.yul\":10842:10844   */\n      0x1f\n        /* \"#utility.yul\":10835:10840   */\n      dup4\n        /* \"#utility.yul\":10831:10845   */\n      add\n        /* \"#utility.yul\":10827:10850   */\n      div\n        /* \"#utility.yul\":10817:10850   */\n      swap1\n      pop\n        /* \"#utility.yul\":10763:10856   */\n      swap2\n      swap1\n      pop\n      jump\t// out\n        /* \"#utility.yul\":10862:10969   */\n    tag_117:\n        /* \"#utility.yul\":10906:10914   */\n      0x00\n        /* \"#utility.yul\":10956:10961   */\n      dup3\n        /* \"#utility.yul\":10950:10954   */\n      dup3\n        /* \"#utility.yul\":10946:10962   */\n      shl\n        /* \"#utility.yul\":10925:10962   */\n      swap1\n      pop\n        /* \"#utility.yul\":10862:10969   */\n      swap3\n      swap2\n      pop\n      pop\n      jump\t// out\n        /* \"#utility.yul\":10975:11368   */\n    tag_118:\n        /* \"#utility.yul\":11044:11050   */\n      0x00\n        /* \"#utility.yul\":11094:11095   */\n      0x08\n        /* \"#utility.yul\":11082:11092   */\n      dup4\n        /* \"#utility.yul\":11078:11096   */\n      mul\n        /* \"#utility.yul\":11117:11214   */\n      tag_244\n        /* \"#utility.yul\":11147:11213   */\n      0xffffffffffffffffffffffffffffffffffffffffffffffffffffffffffffffff\n        /* \"#utility.yul\":11136:11145   */\n      dup3\n        /* \"#utility.yul\":11117:11214   */\n      tag_117\n      jump\t// in\n    tag_244:\n        /* \"#utility.yul\":11235:11274   */\n      tag_245\n        /* \"#utility.yul\":11265:11273   */\n      dup7\n        /* \"#utility.yul\":11254:11263   */\n      dup4\n        /* \"#utility.yul\":11235:11274   */\n      tag_117\n      jump\t// in\n    tag_245:\n        /* \"#utility.yul\":11223:11274   */\n      swap6\n      pop\n        /* \"#utility.yul\":11307:11311   */\n      dup1\n        /* \"#utility.yul\":11303:11312   */\n      not\n        /* \"#utility.yul\":11296:11301   */\n      dup5\n        /* \"#utility.yul\":11292:11313   */\n      and\n        /* \"#utility.yul\":11283:11313   */\n      swap4\n      pop\n        /* \"#utility.yul\":11356:11360   */\n      dup1\n        /* \"#utility.yul\":11346:11354   */\n      dup7\n        /* \"#utility.yul\":11342:11361   */\n      and\n        /* \"#utility.yul\":11335:11340   */\n      dup5\n        /* \"#utility.yul\":11332:11362   */\n      or\n        /* \"#utility.yul\":11322:11362   */\n      swap3\n      pop\n        /* \"#utility.yul\":11051:11368   */\n      pop\n      pop\n        /* \"#utility.yul\":10975:11368   */\n      swap4\n      swap3\n      pop\n      pop\n      pop\n      jump\t// out\n        /* \"#utility.yul\":11374:11434   */\n    tag_119:\n        /* \"#utility.yul\":11402:11405   */\n      0x00\n        /* \"#utility.yul\":11423:11428   */\n      dup2\n        /* \"#utility.yul\":11416:11428   */\n      swap1\n      pop\n        /* \"#utility.yul\":11374:11434   */\n      swap2\n      swap1\n      pop\n      jump\t// out\n        /* \"#utility.yul\":11440:11582   */\n    tag_120:\n        /* \"#utility.yul\":11490:11499   */\n      0x00\n        /* \"#utility.yul\":11523:11576   */\n      tag_248\n        /* \"#utility.yul\":11541:11575   */\n      tag_249\n        /* \"#utility.yul\":11550:11574   */\n      tag_250\n        /* \"#utility.yul\":11568:11573   */\n      dup5\n        /* \"#utility.yul\":11550:11574   */\n      tag_87\n      jump\t// in\n    tag_250:\n        /* \"#utility.yul\":11541:11575   */\n      tag_119\n      jump\t// in\n    tag_249:\n        /* \"#utility.yul\":11523:11576   */\n      tag_87\n      jump\t// in\n    tag_248:\n        /* \"#utility.yul\":11510:11576   */\n      swap1\n      pop\n        /* \"#utility.yul\":11440:11582   */\n      swap2\n      swap1\n      pop\n      jump\t// out\n        /* \"#utility.yul\":11588:11663   */\n    tag_121:\n        /* \"#utility.yul\":11631:11634   */\n      0x00\n        /* \"#utility.yul\":11652:11657   */\n      dup2\n        /* \"#utility.yul\":11645:11657   */\n      swap1\n      pop\n        /* \"#utility.yul\":11588:11663   */\n      swap2\n      swap1\n      pop\n      jump\t// out\n        /* \"#utility.yul\":11669:11938   */\n    tag_122:\n        /* \"#utility.yul\":11779:11818   */\n      tag_253\n        /* \"#utility.yul\":11810:11817   */\n      dup4\n        /* \"#utility.yul\":11779:11818   */\n      tag_120\n      jump\t// in\n    tag_253:\n        /* \"#utility.yul\":11840:11931   */\n      tag_254\n        /* \"#utility.yul\":11889:11930   */\n      tag_255\n        /* \"#utility.yul\":11913:11929   */\n      dup3\n        /* \"#utility.yul\":11889:11930   */\n      tag_121\n      jump\t// in\n    tag_255:\n        /* \"#utility.yul\":11881:11887   */\n      dup5\n        /* \"#utility.yul\":11874:11878   */\n      dup5\n        /* \"#utility.yul\":11868:11879   */\n      sload\n        /* \"#utility.yul\":11840:11931   */\n      tag_118\n      jump\t// in\n    tag_254:\n        /* \"#utility.yul\":11834:11838   */\n      dup3\n        /* \"#utility.yul\":11827:11932   */\n      sstore\n        /* \"#utility.yul\":11745:11938   */\n      pop\n        /* \"#utility.yul\":11669:11938   */\n      pop\n      pop\n      pop\n      jump\t// out\n        /* \"#utility.yul\":11944:12017   */\n    tag_123:\n        /* \"#utility.yul\":11989:11992   */\n      0x00\n        /* \"#utility.yul\":11944:12017   */\n      swap1\n      jump\t// out\n        /* \"#utility.yul\":12023:12212   */\n    tag_124:\n        /* \"#utility.yul\":12100:12132   */\n      tag_258\n      tag_123\n      jump\t// in\n    tag_258:\n        /* \"#utility.yul\":12141:12206   */\n      tag_259\n        /* \"#utility.yul\":12199:12205   */\n      dup2\n        /* \"#utility.yul\":12191:12197   */\n      dup5\n        /* \"#utility.yul\":12185:12189   */\n      dup5\n        /* \"#utility.yul\":12141:12206   */\n      tag_122\n      jump\t// in\n    tag_259:\n        /* \"#utility.yul\":12076:12212   */\n      pop\n        /* \"#utility.yul\":12023:12212   */\n      pop\n      pop\n      jump\t// out\n        /* \"#utility.yul\":12218:12404   */\n    tag_125:\n        /* \"#utility.yul\":12278:12398   */\n    tag_261:\n        /* \"#utility.yul\":12295:12298   */\n      dup2\n        /* \"#utility.yul\":12288:12293   */\n      dup2\n        /* \"#utility.yul\":12285:12299   */\n      lt\n        /* \"#utility.yul\":12278:12398   */\n      iszero\n      tag_263\n      jumpi\n        /* \"#utility.yul\":12349:12388   */\n      tag_264\n        /* \"#utility.yul\":12386:12387   */\n      0x00\n        /* \"#utility.yul\":12379:12384   */\n      dup3\n        /* \"#utility.yul\":12349:12388   */\n      tag_124\n      jump\t// in\n    tag_264:\n        /* \"#utility.yul\":12322:12323   */\n      0x01\n        /* \"#utility.yul\":12315:12320   */\n      dup2\n        /* \"#utility.yul\":12311:12324   */\n      add\n        /* \"#utility.yul\":12302:12324   */\n      swap1\n      pop\n        /* \"#utility.yul\":12278:12398   */\n      jump(tag_261)\n    tag_263:\n        /* \"#utility.yul\":12218:12404   */\n      pop\n      pop\n      jump\t// out\n        /* \"#utility.yul\":12410:12953   */\n    tag_126:\n        /* \"#utility.yul\":12511:12513   */\n      0x1f\n        /* \"#utility.yul\":12506:12509   */\n      dup3\n        /* \"#utility.yul\":12503:12514   */\n      gt\n        /* \"#utility.yul\":12500:12946   */\n      iszero\n      tag_266\n      jumpi\n        /* \"#utility.yul\":12545:12583   */\n      tag_267\n        /* \"#utility.yul\":12577:12582   */\n      dup2\n        /* \"#utility.yul\":12545:12583   */\n      tag_115\n      jump\t// in\n    tag_267:\n        /* \"#utility.yul\":12629:12658   */\n      tag_268\n        /* \"#utility.yul\":12647:12657   */\n      dup5\n        /* \"#utility.yul\":12629:12658   */\n      tag_116\n      jump\t// in\n    tag_268:\n        /* \"#utility.yul\":12619:12627   */\n      dup2\n        /* \"#utility.yul\":12615:12659   */\n      add\n        /* \"#utility.yul\":12812:12814   */\n      0x20\n        /* \"#utility.yul\":12800:12810   */\n      dup6\n        /* \"#utility.yul\":12797:12815   */\n      lt\n        /* \"#utility.yul\":12794:12843   */\n      iszero\n      tag_269\n      jumpi\n        /* \"#utility.yul\":12833:12841   */\n      dup2\n        /* \"#utility.yul\":12818:12841   */\n      swap1\n      pop\n        /* \"#utility.yul\":12794:12843   */\n    tag_269:\n        /* \"#utility.yul\":12856:12936   */\n      tag_270\n        /* \"#utility.yul\":12912:12934   */\n      tag_271\n        /* \"#utility.yul\":12930:12933   */\n      dup6\n        /* \"#utility.yul\":12912:12934   */\n      tag_116\n      jump\t// in\n    tag_271:\n        /* \"#utility.yul\":12902:12910   */\n      dup4\n        /* \"#utility.yul\":12898:12935   */\n      add\n        /* \"#utility.yul\":12885:12896   */\n      dup3\n        /* \"#utility.yul\":12856:12936   */\n      tag_125\n      jump\t// in\n    tag_270:\n        /* \"#utility.yul\":12515:12946   */\n      pop\n      pop\n        /* \"#utility.yul\":12500:12946   */\n    tag_266:\n        /* \"#utility.yul\":12410:12953   */\n      pop\n      pop\n      pop\n      jump\t// out\n        /* \"#utility.yul\":12959:13076   */\n    tag_127:\n        /* \"#utility.yul\":13013:13021   */\n      0x00\n        /* \"#utility.yul\":13063:13068   */\n      dup3\n        /* \"#utility.yul\":13057:13061   */\n      dup3\n        /* \"#utility.yul\":13053:13069   */\n      shr\n        /* \"#utility.yul\":13032:13069   */\n      swap1\n      pop\n        /* \"#utility.yul\":12959:13076   */\n      swap3\n      swap2\n      pop\n      pop\n      jump\t// out\n        /* \"#utility.yul\":13082:13251   */\n    tag_128:\n        /* \"#utility.yul\":13126:13132   */\n      0x00\n        /* \"#utility.yul\":13159:13210   */\n      tag_274\n        /* \"#utility.yul\":13207:13208   */\n      0x00\n        /* \"#utility.yul\":13203:13209   */\n      not\n        /* \"#utility.yul\":13195:13200   */\n      dup5\n        /* \"#utility.yul\":13192:13193   */\n      0x08\n        /* \"#utility.yul\":13188:13201   */\n      mul\n        /* \"#utility.yul\":13159:13210   */\n      tag_127\n      jump\t// in\n    tag_274:\n        /* \"#utility.yul\":13155:13211   */\n      not\n        /* \"#utility.yul\":13240:13244   */\n      dup1\n        /* \"#utility.yul\":13234:13238   */\n      dup4\n        /* \"#utility.yul\":13230:13245   */\n      and\n        /* \"#utility.yul\":13220:13245   */\n      swap2\n      pop\n        /* \"#utility.yul\":13133:13251   */\n      pop\n        /* \"#utility.yul\":13082:13251   */\n      swap3\n      swap2\n      pop\n      pop\n      jump\t// out\n        /* \"#utility.yul\":13256:13551   */\n    tag_129:\n        /* \"#utility.yul\":13332:13336   */\n      0x00\n        /* \"#utility.yul\":13478:13507   */\n      tag_276\n        /* \"#utility.yul\":13503:13506   */\n      dup4\n        /* \"#utility.yul\":13497:13501   */\n      dup4\n        /* \"#utility.yul\":13478:13507   */\n      tag_128\n      jump\t// in\n    tag_276:\n        /* \"#utility.yul\":13470:13507   */\n      swap2\n      pop\n        /* \"#utility.yul\":13540:13543   */\n      dup3\n        /* \"#utility.yul\":13537:13538   */\n      0x02\n        /* \"#utility.yul\":13533:13544   */\n      mul\n        /* \"#utility.yul\":13527:13531   */\n      dup3\n        /* \"#utility.yul\":13524:13545   */\n      or\n        /* \"#utility.yul\":13516:13545   */\n      swap1\n      pop\n        /* \"#utility.yul\":13256:13551   */\n      swap3\n      swap2\n      pop\n      pop\n      jump\t// out\n        /* \"#utility.yul\":13556:14951   */\n    tag_38:\n        /* \"#utility.yul\":13673:13710   */\n      tag_278\n        /* \"#utility.yul\":13706:13709   */\n      dup3\n        /* \"#utility.yul\":13673:13710   */\n      tag_82\n      jump\t// in\n    tag_278:\n        /* \"#utility.yul\":13775:13793   */\n      0xffffffffffffffff\n        /* \"#utility.yul\":13767:13773   */\n      dup2\n        /* \"#utility.yul\":13764:13794   */\n      gt\n        /* \"#utility.yul\":13761:13817   */\n      iszero\n      tag_279\n      jumpi\n        /* \"#utility.yul\":13797:13815   */\n      tag_280\n      tag_98\n      jump\t// in\n    tag_280:\n        /* \"#utility.yul\":13761:13817   */\n    tag_279:\n        /* \"#utility.yul\":13841:13879   */\n      tag_281\n        /* \"#utility.yul\":13873:13877   */\n      dup3\n        /* \"#utility.yul\":13867:13878   */\n      sload\n        /* \"#utility.yul\":13841:13879   */\n      tag_30\n      jump\t// in\n    tag_281:\n        /* \"#utility.yul\":13926:13993   */\n      tag_282\n        /* \"#utility.yul\":13986:13992   */\n      dup3\n        /* \"#utility.yul\":13978:13984   */\n      dup3\n        /* \"#utility.yul\":13972:13976   */\n      dup6\n        /* \"#utility.yul\":13926:13993   */\n      tag_126\n      jump\t// in\n    tag_282:\n        /* \"#utility.yul\":14020:14021   */\n      0x00\n        /* \"#utility.yul\":14044:14048   */\n      0x20\n        /* \"#utility.yul\":14031:14048   */\n      swap1\n      pop\n        /* \"#utility.yul\":14076:14078   */\n      0x1f\n        /* \"#utility.yul\":14068:14074   */\n      dup4\n        /* \"#utility.yul\":14065:14079   */\n      gt\n        /* \"#utility.yul\":14093:14094   */\n      0x01\n        /* \"#utility.yul\":14088:14706   */\n      dup2\n      eq\n      tag_284\n      jumpi\n        /* \"#utility.yul\":14750:14751   */\n      0x00\n        /* \"#utility.yul\":14767:14773   */\n      dup5\n        /* \"#utility.yul\":14764:14841   */\n      iszero\n      tag_285\n      jumpi\n        /* \"#utility.yul\":14816:14825   */\n      dup3\n        /* \"#utility.yul\":14811:14814   */\n      dup8\n        /* \"#utility.yul\":14807:14826   */\n      add\n        /* \"#utility.yul\":14801:14827   */\n      mload\n        /* \"#utility.yul\":14792:14827   */\n      swap1\n      pop\n        /* \"#utility.yul\":14764:14841   */\n    tag_285:\n        /* \"#utility.yul\":14867:14934   */\n      tag_286\n        /* \"#utility.yul\":14927:14933   */\n      dup6\n        /* \"#utility.yul\":14920:14925   */\n      dup3\n        /* \"#utility.yul\":14867:14934   */\n      tag_129\n      jump\t// in\n    tag_286:\n        /* \"#utility.yul\":14861:14865   */\n      dup7\n        /* \"#utility.yul\":14854:14935   */\n      sstore\n        /* \"#utility.yul\":14723:14945   */\n      pop\n        /* \"#utility.yul\":14058:14945   */\n      jump(tag_283)\n        /* \"#utility.yul\":14088:14706   */\n    tag_284:\n        /* \"#utility.yul\":14140:14144   */\n      0x1f\n        /* \"#utility.yul\":14136:14145   */\n      not\n        /* \"#utility.yul\":14128:14134   */\n      dup5\n        /* \"#utility.yul\":14124:14146   */\n      and\n        /* \"#utility.yul\":14174:14211   */\n      tag_287\n        /* \"#utility.yul\":14206:14210   */\n      dup7\n        /* \"#utility.yul\":14174:14211   */\n      tag_115\n      jump\t// in\n    tag_287:\n        /* \"#utility.yul\":14233:14234   */\n      0x00\n        /* \"#utility.yul\":14247:14455   */\n    tag_288:\n        /* \"#utility.yul\":14261:14268   */\n      dup3\n        /* \"#utility.yul\":14258:14259   */\n      dup2\n        /* \"#utility.yul\":14255:14269   */\n      lt\n        /* \"#utility.yul\":14247:14455   */\n      iszero\n      tag_290\n      jumpi\n        /* \"#utility.yul\":14340:14349   */\n      dup5\n        /* \"#utility.yul\":14335:14338   */\n      dup10\n        /* \"#utility.yul\":14331:14350   */\n      add\n        /* \"#utility.yul\":14325:14351   */\n      mload\n        /* \"#utility.yul\":14317:14323   */\n      dup3\n        /* \"#utility.yul\":14310:14352   */\n      sstore\n        /* \"#utility.yul\":14391:14392   */\n      0x01\n        /* \"#utility.yul\":14383:14389   */\n      dup3\n        /* \"#utility.yul\":14379:14393   */\n      add\n        /* \"#utility.yul\":14369:14393   */\n      swap2\n      pop\n        /* \"#utility.yul\":14438:14440   */\n      0x20\n        /* \"#utility.yul\":14427:14436   */\n      dup6\n        /* \"#utility.yul\":14423:14441   */\n      add\n        /* \"#utility.yul\":14410:14441   */\n      swap5\n      pop\n        /* \"#utility.yul\":14284:14288   */\n      0x20\n        /* \"#utility.yul\":14281:14282   */\n      dup2\n        /* \"#utility.yul\":14277:14289   */\n      add\n        /* \"#utility.yul\":14272:14289   */\n      swap1\n      pop\n        /* \"#utility.yul\":14247:14455   */\n      jump(tag_288)\n    tag_290:\n        /* \"#utility.yul\":14483:14489   */\n      dup7\n        /* \"#utility.yul\":14474:14481   */\n      dup4\n        /* \"#utility.yul\":14471:14490   */\n      lt\n        /* \"#utility.yul\":14468:14647   */\n      iszero\n      tag_291\n      jumpi\n        /* \"#utility.yul\":14541:14550   */\n      dup5\n        /* \"#utility.yul\":14536:14539   */\n      dup10\n        /* \"#utility.yul\":14532:14551   */\n      add\n        /* \"#utility.yul\":14526:14552   */\n      mload\n        /* \"#utility.yul\":14584:14632   */\n      tag_292\n        /* \"#utility.yul\":14626:14630   */\n      0x1f\n        /* \"#utility.yul\":14618:14624   */\n      dup10\n        /* \"#utility.yul\":14614:14631   */\n      and\n        /* \"#utility.yul\":14603:14612   */\n      dup3\n        /* \"#utility.yul\":14584:14632   */\n      tag_128\n      jump\t// in\n    tag_292:\n        /* \"#utility.yul\":14576:14582   */\n      dup4\n        /* \"#utility.yul\":14569:14633   */\n      sstore\n        /* \"#utility.yul\":14491:14647   */\n      pop\n        /* \"#utility.yul\":14468:14647   */\n    tag_291:\n        /* \"#utility.yul\":14693:14694   */\n      0x01\n        /* \"#utility.yul\":14689:14690   */\n      0x02\n        /* \"#utility.yul\":14681:14687   */\n      dup9\n        /* \"#utility.yul\":14677:14691   */\n      mul\n        /* \"#utility.yul\":14673:14695   */\n      add\n        /* \"#utility.yul\":14667:14671   */\n      dup9\n        /* \"#utility.yul\":14660:14696   */\n      sstore\n        /* \"#utility.yul\":14095:14706   */\n      pop\n      pop\n      pop\n        /* \"#utility.yul\":14058:14945   */\n    tag_283:\n      pop\n        /* \"#utility.yul\":13648:14951   */\n      pop\n      pop\n      pop\n        /* \"#utility.yul\":13556:14951   */\n      pop\n      pop\n      jump\t// out\n        /* \"#utility.yul\":14957:15119   */\n    tag_130:\n        /* \"#utility.yul\":15097:15111   */\n      0x6f7574206f6620696e6465780000000000000000000000000000000000000000\n        /* \"#utility.yul\":15093:15094   */\n      0x00\n        /* \"#utility.yul\":15085:15091   */\n      dup3\n        /* \"#utility.yul\":15081:15095   */\n      add\n        /* \"#utility.yul\":15074:15112   */\n      mstore\n        /* \"#utility.yul\":14957:15119   */\n      pop\n      jump\t// out\n        /* \"#utility.yul\":15125:15491   */\n    tag_131:\n        /* \"#utility.yul\":15267:15270   */\n      0x00\n        /* \"#utility.yul\":15288:15355   */\n      tag_295\n        /* \"#utility.yul\":15352:15354   */\n      0x0c\n        /* \"#utility.yul\":15347:15350   */\n      dup4\n        /* \"#utility.yul\":15288:15355   */\n      tag_111\n      jump\t// in\n    tag_295:\n        /* \"#utility.yul\":15281:15355   */\n      swap2\n      pop\n        /* \"#utility.yul\":15364:15457   */\n      tag_296\n        /* \"#utility.yul\":15453:15456   */\n      dup3\n        /* \"#utility.yul\":15364:15457   */\n      tag_130\n      jump\t// in\n    tag_296:\n        /* \"#utility.yul\":15482:15484   */\n      0x20\n        /* \"#utility.yul\":15477:15480   */\n      dup3\n        /* \"#utility.yul\":15473:15485   */\n      add\n        /* \"#utility.yul\":15466:15485   */\n      swap1\n      pop\n        /* \"#utility.yul\":15125:15491   */\n      swap2\n      swap1\n      pop\n      jump\t// out\n        /* \"#utility.yul\":15497:15916   */\n    tag_42:\n        /* \"#utility.yul\":15663:15667   */\n      0x00\n        /* \"#utility.yul\":15701:15703   */\n      0x20\n        /* \"#utility.yul\":15690:15699   */\n      dup3\n        /* \"#utility.yul\":15686:15704   */\n      add\n        /* \"#utility.yul\":15678:15704   */\n      swap1\n      pop\n        /* \"#utility.yul\":15750:15759   */\n      dup2\n        /* \"#utility.yul\":15744:15748   */\n      dup2\n        /* \"#utility.yul\":15740:15760   */\n      sub\n        /* \"#utility.yul\":15736:15737   */\n      0x00\n        /* \"#utility.yul\":15725:15734   */\n      dup4\n        /* \"#utility.yul\":15721:15738   */\n      add\n        /* \"#utility.yul\":15714:15761   */\n      mstore\n        /* \"#utility.yul\":15778:15909   */\n      tag_298\n        /* \"#utility.yul\":15904:15908   */\n      dup2\n        /* \"#utility.yul\":15778:15909   */\n      tag_131\n      jump\t// in\n    tag_298:\n        /* \"#utility.yul\":15770:15909   */\n      swap1\n      pop\n        /* \"#utility.yul\":15497:15916   */\n      swap2\n      swap1\n      pop\n      jump\t// out\n        /* \"#utility.yul\":15922:16102   */\n    tag_132:\n        /* \"#utility.yul\":15970:16047   */\n      0x4e487b7100000000000000000000000000000000000000000000000000000000\n        /* \"#utility.yul\":15967:15968   */\n      0x00\n        /* \"#utility.yul\":15960:16048   */\n      mstore\n        /* \"#utility.yul\":16067:16071   */\n      0x11\n        /* \"#utility.yul\":16064:16065   */\n      0x04\n        /* \"#utility.yul\":16057:16072   */\n      mstore\n        /* \"#utility.yul\":16091:16095   */\n      0x24\n        /* \"#utility.yul\":16088:16089   */\n      0x00\n        /* \"#utility.yul\":16081:16096   */\n      revert\n        /* \"#utility.yul\":16108:16302   */\n    tag_47:\n        /* \"#utility.yul\":16148:16152   */\n      0x00\n        /* \"#utility.yul\":16168:16188   */\n      tag_301\n        /* \"#utility.yul\":16186:16187   */\n      dup3\n        /* \"#utility.yul\":16168:16188   */\n      tag_87\n      jump\t// in\n    tag_301:\n        /* \"#utility.yul\":16163:16188   */\n      swap2\n      pop\n        /* \"#utility.yul\":16202:16222   */\n      tag_302\n        /* \"#utility.yul\":16220:16221   */\n      dup4\n        /* \"#utility.yul\":16202:16222   */\n      tag_87\n      jump\t// in\n    tag_302:\n        /* \"#utility.yul\":16197:16222   */\n      swap3\n      pop\n        /* \"#utility.yul\":16246:16247   */\n      dup3\n        /* \"#utility.yul\":16243:16244   */\n      dup3\n        /* \"#utility.yul\":16239:16248   */\n      sub\n        /* \"#utility.yul\":16231:16248   */\n      swap1\n      pop\n        /* \"#utility.yul\":16270:16271   */\n      dup2\n        /* \"#utility.yul\":16264:16268   */\n      dup2\n        /* \"#utility.yul\":16261:16272   */\n      gt\n        /* \"#utility.yul\":16258:16295   */\n      iszero\n      tag_303\n      jumpi\n        /* \"#utility.yul\":16275:16293   */\n      tag_304\n      tag_132\n      jump\t// in\n    tag_304:\n        /* \"#utility.yul\":16258:16295   */\n    tag_303:\n        /* \"#utility.yul\":16108:16302   */\n      swap3\n      swap2\n      pop\n      pop\n      jump\t// out\n        /* \"#utility.yul\":16308:16499   */\n    tag_49:\n        /* \"#utility.yul\":16348:16351   */\n      0x00\n        /* \"#utility.yul\":16367:16387   */\n      tag_306\n        /* \"#utility.yul\":16385:16386   */\n      dup3\n        /* \"#utility.yul\":16367:16387   */\n      tag_87\n      jump\t// in\n    tag_306:\n        /* \"#utility.yul\":16362:16387   */\n      swap2\n      pop\n        /* \"#utility.yul\":16401:16421   */\n      tag_307\n        /* \"#utility.yul\":16419:16420   */\n      dup4\n        /* \"#utility.yul\":16401:16421   */\n      tag_87\n      jump\t// in\n    tag_307:\n        /* \"#utility.yul\":16396:16421   */\n      swap3\n      pop\n        /* \"#utility.yul\":16444:16445   */\n      dup3\n        /* \"#utility.yul\":16441:16442   */\n      dup3\n        /* \"#utility.yul\":16437:16446   */\n      add\n        /* \"#utility.yul\":16430:16446   */\n      swap1\n      pop\n        /* \"#utility.yul\":16465:16468   */\n      dup1\n        /* \"#utility.yul\":16462:16463   */\n      dup3\n        /* \"#utility.yul\":16459:16469   */\n      gt\n        /* \"#utility.yul\":16456:16492   */\n      iszero\n      tag_308\n      jumpi\n        /* \"#utility.yul\":16472:16490   */\n      tag_309\n      tag_132\n      jump\t// in\n    tag_309:\n        /* \"#utility.yul\":16456:16492   */\n    tag_308:\n        /* \"#utility.yul\":16308:16499   */\n      swap3\n      swap2\n      pop\n      pop\n      jump\t// out\n        /* \"#utility.yul\":16505:16685   */\n    tag_52:\n        /* \"#utility.yul\":16553:16630   */\n      0x4e487b7100000000000000000000000000000000000000000000000000000000\n        /* \"#utility.yul\":16550:16551   */\n      0x00\n        /* \"#utility.yul\":16543:16631   */\n      mstore\n        /* \"#utility.yul\":16650:16654   */\n      0x32\n        /* \"#utility.yul\":16647:16648   */\n      0x04\n        /* \"#utility.yul\":16640:16655   */\n      mstore\n        /* \"#utility.yul\":16674:16678   */\n      0x24\n        /* \"#utility.yul\":16671:16672   */\n      0x00\n        /* \"#utility.yul\":16664:16679   */\n      revert\n        /* \"#utility.yul\":16691:16840   */\n    tag_133:\n        /* \"#utility.yul\":16740:16746   */\n      0x00\n        /* \"#utility.yul\":16774:16779   */\n      dup2\n        /* \"#utility.yul\":16768:16780   */\n      sload\n        /* \"#utility.yul\":16758:16780   */\n      swap1\n      pop\n        /* \"#utility.yul\":16800:16833   */\n      tag_312\n        /* \"#utility.yul\":16826:16832   */\n      dup2\n        /* \"#utility.yul\":16800:16833   */\n      tag_30\n      jump\t// in\n    tag_312:\n        /* \"#utility.yul\":16790:16833   */\n      swap1\n      pop\n        /* \"#utility.yul\":16691:16840   */\n      swap2\n      swap1\n      pop\n      jump\t// out\n        /* \"#utility.yul\":16846:18297   */\n    tag_58:\n        /* \"#utility.yul\":16957:16960   */\n      dup2\n        /* \"#utility.yul\":16951:16955   */\n      dup2\n        /* \"#utility.yul\":16948:16961   */\n      sub\n        /* \"#utility.yul\":16945:16971   */\n      tag_314\n      jumpi\n        /* \"#utility.yul\":16964:16969   */\n      pop\n      pop\n      jump(tag_313)\n        /* \"#utility.yul\":16945:16971   */\n    tag_314:\n        /* \"#utility.yul\":16995:17029   */\n      tag_315\n        /* \"#utility.yul\":17025:17028   */\n      dup3\n        /* \"#utility.yul\":16995:17029   */\n      tag_133\n      jump\t// in\n    tag_315:\n        /* \"#utility.yul\":17094:17112   */\n      0xffffffffffffffff\n        /* \"#utility.yul\":17086:17092   */\n      dup2\n        /* \"#utility.yul\":17083:17113   */\n      gt\n        /* \"#utility.yul\":17080:17136   */\n      iszero\n      tag_316\n      jumpi\n        /* \"#utility.yul\":17116:17134   */\n      tag_317\n      tag_98\n      jump\t// in\n    tag_317:\n        /* \"#utility.yul\":17080:17136   */\n    tag_316:\n        /* \"#utility.yul\":17160:17198   */\n      tag_318\n        /* \"#utility.yul\":17192:17196   */\n      dup3\n        /* \"#utility.yul\":17186:17197   */\n      sload\n        /* \"#utility.yul\":17160:17198   */\n      tag_30\n      jump\t// in\n    tag_318:\n        /* \"#utility.yul\":17245:17312   */\n      tag_319\n        /* \"#utility.yul\":17305:17311   */\n      dup3\n        /* \"#utility.yul\":17297:17303   */\n      dup3\n        /* \"#utility.yul\":17291:17295   */\n      dup6\n        /* \"#utility.yul\":17245:17312   */\n      tag_126\n      jump\t// in\n    tag_319:\n        /* \"#utility.yul\":17339:17340   */\n      0x00\n        /* \"#utility.yul\":17368:17370   */\n      0x1f\n        /* \"#utility.yul\":17360:17366   */\n      dup4\n        /* \"#utility.yul\":17357:17371   */\n      gt\n        /* \"#utility.yul\":17385:17386   */\n      0x01\n        /* \"#utility.yul\":17380:18052   */\n      dup2\n      eq\n      tag_321\n      jumpi\n        /* \"#utility.yul\":18096:18097   */\n      0x00\n        /* \"#utility.yul\":18113:18119   */\n      dup5\n        /* \"#utility.yul\":18110:18187   */\n      iszero\n      tag_322\n      jumpi\n        /* \"#utility.yul\":18162:18171   */\n      dup3\n        /* \"#utility.yul\":18157:18160   */\n      dup8\n        /* \"#utility.yul\":18153:18172   */\n      add\n        /* \"#utility.yul\":18147:18173   */\n      sload\n        /* \"#utility.yul\":18138:18173   */\n      swap1\n      pop\n        /* \"#utility.yul\":18110:18187   */\n    tag_322:\n        /* \"#utility.yul\":18213:18280   */\n      tag_323\n        /* \"#utility.yul\":18273:18279   */\n      dup6\n        /* \"#utility.yul\":18266:18271   */\n      dup3\n        /* \"#utility.yul\":18213:18280   */\n      tag_129\n      jump\t// in\n    tag_323:\n        /* \"#utility.yul\":18207:18211   */\n      dup7\n        /* \"#utility.yul\":18200:18281   */\n      sstore\n        /* \"#utility.yul\":18069:18291   */\n      pop\n        /* \"#utility.yul\":17350:18291   */\n      jump(tag_320)\n        /* \"#utility.yul\":17380:18052   */\n    tag_321:\n        /* \"#utility.yul\":17432:17436   */\n      0x1f\n        /* \"#utility.yul\":17428:17437   */\n      not\n        /* \"#utility.yul\":17420:17426   */\n      dup5\n        /* \"#utility.yul\":17416:17438   */\n      and\n        /* \"#utility.yul\":17458:17494   */\n      tag_324\n        /* \"#utility.yul\":17490:17493   */\n      dup8\n        /* \"#utility.yul\":17458:17494   */\n      tag_115\n      jump\t// in\n    tag_324:\n        /* \"#utility.yul\":17451:17494   */\n      swap7\n      pop\n        /* \"#utility.yul\":17521:17558   */\n      tag_325\n        /* \"#utility.yul\":17553:17557   */\n      dup7\n        /* \"#utility.yul\":17521:17558   */\n      tag_115\n      jump\t// in\n    tag_325:\n        /* \"#utility.yul\":17580:17581   */\n      0x00\n        /* \"#utility.yul\":17594:17801   */\n    tag_326:\n        /* \"#utility.yul\":17608:17615   */\n      dup3\n        /* \"#utility.yul\":17605:17606   */\n      dup2\n        /* \"#utility.yul\":17602:17616   */\n      lt\n        /* \"#utility.yul\":17594:17801   */\n      iszero\n      tag_328\n      jumpi\n        /* \"#utility.yul\":17687:17696   */\n      dup5\n        /* \"#utility.yul\":17682:17685   */\n      dup10\n        /* \"#utility.yul\":17678:17697   */\n      add\n        /* \"#utility.yul\":17672:17698   */\n      sload\n        /* \"#utility.yul\":17664:17670   */\n      dup3\n        /* \"#utility.yul\":17657:17699   */\n      sstore\n        /* \"#utility.yul\":17738:17739   */\n      0x01\n        /* \"#utility.yul\":17730:17736   */\n      dup3\n        /* \"#utility.yul\":17726:17740   */\n      add\n        /* \"#utility.yul\":17716:17740   */\n      swap2\n      pop\n        /* \"#utility.yul\":17785:17786   */\n      0x01\n        /* \"#utility.yul\":17774:17783   */\n      dup6\n        /* \"#utility.yul\":17770:17787   */\n      add\n        /* \"#utility.yul\":17757:17787   */\n      swap5\n      pop\n        /* \"#utility.yul\":17631:17635   */\n      0x20\n        /* \"#utility.yul\":17628:17629   */\n      dup2\n        /* \"#utility.yul\":17624:17636   */\n      add\n        /* \"#utility.yul\":17619:17636   */\n      swap1\n      pop\n        /* \"#utility.yul\":17594:17801   */\n      jump(tag_326)\n    tag_328:\n        /* \"#utility.yul\":17829:17835   */\n      dup7\n        /* \"#utility.yul\":17820:17827   */\n      dup4\n        /* \"#utility.yul\":17817:17836   */\n      lt\n        /* \"#utility.yul\":17814:17993   */\n      iszero\n      tag_329\n      jumpi\n        /* \"#utility.yul\":17887:17896   */\n      dup5\n        /* \"#utility.yul\":17882:17885   */\n      dup10\n        /* \"#utility.yul\":17878:17897   */\n      add\n        /* \"#utility.yul\":17872:17898   */\n      sload\n        /* \"#utility.yul\":17930:17978   */\n      tag_330\n        /* \"#utility.yul\":17972:17976   */\n      0x1f\n        /* \"#utility.yul\":17964:17970   */\n      dup10\n        /* \"#utility.yul\":17960:17977   */\n      and\n        /* \"#utility.yul\":17949:17958   */\n      dup3\n        /* \"#utility.yul\":17930:17978   */\n      tag_128\n      jump\t// in\n    tag_330:\n        /* \"#utility.yul\":17922:17928   */\n      dup4\n        /* \"#utility.yul\":17915:17979   */\n      sstore\n        /* \"#utility.yul\":17837:17993   */\n      pop\n        /* \"#utility.yul\":17814:17993   */\n    tag_329:\n        /* \"#utility.yul\":18039:18040   */\n      0x01\n        /* \"#utility.yul\":18035:18036   */\n      0x02\n        /* \"#utility.yul\":18027:18033   */\n      dup9\n        /* \"#utility.yul\":18023:18037   */\n      mul\n        /* \"#utility.yul\":18019:18041   */\n      add\n        /* \"#utility.yul\":18013:18017   */\n      dup9\n        /* \"#utility.yul\":18006:18042   */\n      sstore\n        /* \"#utility.yul\":17387:18052   */\n      pop\n      pop\n      pop\n        /* \"#utility.yul\":17350:18291   */\n    tag_320:\n      pop\n        /* \"#utility.yul\":16935:18297   */\n      pop\n      pop\n      pop\n        /* \"#utility.yul\":16846:18297   */\n      pop\n      pop\n    tag_313:\n      jump\t// out\n        /* \"#utility.yul\":18303:18483   */\n    tag_61:\n        /* \"#utility.yul\":18351:18428   */\n      0x4e487b7100000000000000000000000000000000000000000000000000000000\n        /* \"#utility.yul\":18348:18349   */\n      0x00\n        /* \"#utility.yul\":18341:18429   */\n      mstore\n        /* \"#utility.yul\":18448:18452   */\n      0x31\n        /* \"#utility.yul\":18445:18446   */\n      0x04\n        /* \"#utility.yul\":18438:18453   */\n      mstore\n        /* \"#utility.yul\":18472:18476   */\n      0x24\n        /* \"#utility.yul\":18469:18470   */\n      0x00\n        /* \"#utility.yul\":18462:18477   */\n      revert\n\n    auxdata: 0xa264697066735822122052df6302c2ee78b6e0e70fd8610e8e972ca17ca101fe8f645dcfbb116079bb1664736f6c634300081a0033\n}\n",
				"bytecode": {
					"linkReferences": {},
					"object": "6080604052348015600e575f80fd5b50610fec8061001c5f395ff3fe608060405234801561000f575f80fd5b506004361061004a575f3560e01c80632da951be1461004e57806358aff6d41461006c5780636e3c6738146100885780639c0275d0146100a4575b5f80fd5b6100566100d5565b6040516100639190610775565b60405180910390f35b610086600480360381019061008191906108fc565b610204565b005b6100a2600480360381019061009d9190610956565b61029f565b005b6100be60048036038101906100b991906109db565b6104e1565b6040516100cc929190610a70565b60405180910390f35b60605f803373ffffffffffffffffffffffffffffffffffffffff1673ffffffffffffffffffffffffffffffffffffffff1681526020019081526020015f20805480602002602001604051908101604052809291908181526020015f905b828210156101fb578382905f5260205f2090600202016040518060400160405290815f8201805461016290610acb565b80601f016020809104026020016040519081016040528092919081815260200182805461018e90610acb565b80156101d95780601f106101b0576101008083540402835291602001916101d9565b820191905f5260205f20905b8154815290600101906020018083116101bc57829003601f168201915b5050505050815260200160018201548152505081526020019060010190610132565b50505050905090565b5f803373ffffffffffffffffffffffffffffffffffffffff1673ffffffffffffffffffffffffffffffffffffffff1681526020019081526020015f20604051806040016040528084815260200183815250908060018154018082558091505060019003905f5260205f2090600202015f909190919091505f820151815f01908161028e9190610c98565b506020820151816001015550505050565b5f803373ffffffffffffffffffffffffffffffffffffffff1673ffffffffffffffffffffffffffffffffffffffff1681526020019081526020015f20805490508110610320576040517f08c379a000000000000000000000000000000000000000000000000000000000815260040161031790610db1565b60405180910390fd5b5f8190505b60015f803373ffffffffffffffffffffffffffffffffffffffff1673ffffffffffffffffffffffffffffffffffffffff1681526020019081526020015f20805490506103719190610dfc565b811015610465575f803373ffffffffffffffffffffffffffffffffffffffff1673ffffffffffffffffffffffffffffffffffffffff1681526020019081526020015f206001826103c19190610e2f565b815481106103d2576103d1610e62565b5b905f5260205f2090600202015f803373ffffffffffffffffffffffffffffffffffffffff1673ffffffffffffffffffffffffffffffffffffffff1681526020019081526020015f20828154811061042c5761042b610e62565b5b905f5260205f2090600202015f8201815f01908161044a9190610ea4565b50600182015481600101559050508080600101915050610325565b505f803373ffffffffffffffffffffffffffffffffffffffff1673ffffffffffffffffffffffffffffffffffffffff1681526020019081526020015f208054806104b2576104b1610f89565b5b600190038181905f5260205f2090600202015f8082015f6104d391906105a0565b600182015f90555050905550565b5f602052815f5260405f2081815481106104f9575f80fd5b905f5260205f2090600202015f9150915050805f01805461051990610acb565b80601f016020809104026020016040519081016040528092919081815260200182805461054590610acb565b80156105905780601f1061056757610100808354040283529160200191610590565b820191905f5260205f20905b81548152906001019060200180831161057357829003601f168201915b5050505050908060010154905082565b5080546105ac90610acb565b5f825580601f106105bd57506105da565b601f0160209004905f5260205f20908101906105d991906105dd565b5b50565b5b808211156105f4575f815f9055506001016105de565b5090565b5f81519050919050565b5f82825260208201905092915050565b5f819050602082019050919050565b5f81519050919050565b5f82825260208201905092915050565b8281835e5f83830152505050565b5f601f19601f8301169050919050565b5f61066382610621565b61066d818561062b565b935061067d81856020860161063b565b61068681610649565b840191505092915050565b5f819050919050565b6106a381610691565b82525050565b5f604083015f8301518482035f8601526106c38282610659565b91505060208301516106d8602086018261069a565b508091505092915050565b5f6106ee83836106a9565b905092915050565b5f602082019050919050565b5f61070c826105f8565b6107168185610602565b93508360208202850161072885610612565b805f5b85811015610763578484038952815161074485826106e3565b945061074f836106f6565b925060208a0199505060018101905061072b565b50829750879550505050505092915050565b5f6020820190508181035f83015261078d8184610702565b905092915050565b5f604051905090565b5f80fd5b5f80fd5b5f80fd5b5f80fd5b7f4e487b71000000000000000000000000000000000000000000000000000000005f52604160045260245ffd5b6107e482610649565b810181811067ffffffffffffffff82111715610803576108026107ae565b5b80604052505050565b5f610815610795565b905061082182826107db565b919050565b5f67ffffffffffffffff8211156108405761083f6107ae565b5b61084982610649565b9050602081019050919050565b828183375f83830152505050565b5f61087661087184610826565b61080c565b905082815260208101848484011115610892576108916107aa565b5b61089d848285610856565b509392505050565b5f82601f8301126108b9576108b86107a6565b5b81356108c9848260208601610864565b91505092915050565b6108db81610691565b81146108e5575f80fd5b50565b5f813590506108f6816108d2565b92915050565b5f80604083850312156109125761091161079e565b5b5f83013567ffffffffffffffff81111561092f5761092e6107a2565b5b61093b858286016108a5565b925050602061094c858286016108e8565b9150509250929050565b5f6020828403121561096b5761096a61079e565b5b5f610978848285016108e8565b91505092915050565b5f73ffffffffffffffffffffffffffffffffffffffff82169050919050565b5f6109aa82610981565b9050919050565b6109ba816109a0565b81146109c4575f80fd5b50565b5f813590506109d5816109b1565b92915050565b5f80604083850312156109f1576109f061079e565b5b5f6109fe858286016109c7565b9250506020610a0f858286016108e8565b9150509250929050565b5f82825260208201905092915050565b5f610a3382610621565b610a3d8185610a19565b9350610a4d81856020860161063b565b610a5681610649565b840191505092915050565b610a6a81610691565b82525050565b5f6040820190508181035f830152610a888185610a29565b9050610a976020830184610a61565b9392505050565b7f4e487b71000000000000000000000000000000000000000000000000000000005f52602260045260245ffd5b5f6002820490506001821680610ae257607f821691505b602082108103610af557610af4610a9e565b5b50919050565b5f819050815f5260205f209050919050565b5f6020601f8301049050919050565b5f82821b905092915050565b5f60088302610b577fffffffffffffffffffffffffffffffffffffffffffffffffffffffffffffffff82610b1c565b610b618683610b1c565b95508019841693508086168417925050509392505050565b5f819050919050565b5f610b9c610b97610b9284610691565b610b79565b610691565b9050919050565b5f819050919050565b610bb583610b82565b610bc9610bc182610ba3565b848454610b28565b825550505050565b5f90565b610bdd610bd1565b610be8818484610bac565b505050565b5b81811015610c0b57610c005f82610bd5565b600181019050610bee565b5050565b601f821115610c5057610c2181610afb565b610c2a84610b0d565b81016020851015610c39578190505b610c4d610c4585610b0d565b830182610bed565b50505b505050565b5f82821c905092915050565b5f610c705f1984600802610c55565b1980831691505092915050565b5f610c888383610c61565b9150826002028217905092915050565b610ca182610621565b67ffffffffffffffff811115610cba57610cb96107ae565b5b610cc48254610acb565b610ccf828285610c0f565b5f60209050601f831160018114610d00575f8415610cee578287015190505b610cf88582610c7d565b865550610d5f565b601f198416610d0e86610afb565b5f5b82811015610d3557848901518255600182019150602085019450602081019050610d10565b86831015610d525784890151610d4e601f891682610c61565b8355505b6001600288020188555050505b505050505050565b7f6f7574206f6620696e64657800000000000000000000000000000000000000005f82015250565b5f610d9b600c83610a19565b9150610da682610d67565b602082019050919050565b5f6020820190508181035f830152610dc881610d8f565b9050919050565b7f4e487b71000000000000000000000000000000000000000000000000000000005f52601160045260245ffd5b5f610e0682610691565b9150610e1183610691565b9250828203905081811115610e2957610e28610dcf565b5b92915050565b5f610e3982610691565b9150610e4483610691565b9250828201905080821115610e5c57610e5b610dcf565b5b92915050565b7f4e487b71000000000000000000000000000000000000000000000000000000005f52603260045260245ffd5b5f81549050610e9d81610acb565b9050919050565b818103610eb2575050610f87565b610ebb82610e8f565b67ffffffffffffffff811115610ed457610ed36107ae565b5b610ede8254610acb565b610ee9828285610c0f565b5f601f831160018114610f16575f8415610f04578287015490505b610f0e8582610c7d565b865550610f80565b601f198416610f2487610afb565b9650610f2f86610afb565b5f5b82811015610f5657848901548255600182019150600185019450602081019050610f31565b86831015610f735784890154610f6f601f891682610c61565b8355505b6001600288020188555050505b5050505050505b565b7f4e487b71000000000000000000000000000000000000000000000000000000005f52603160045260245ffdfea264697066735822122052df6302c2ee78b6e0e70fd8610e8e972ca17ca101fe8f645dcfbb116079bb1664736f6c634300081a0033",
					"opcodes": "PUSH1 0x80 PUSH1 0x40 MSTORE CALLVALUE DUP1 ISZERO PUSH1 0xE JUMPI PUSH0 DUP1 REVERT JUMPDEST POP PUSH2 0xFEC DUP1 PUSH2 0x1C PUSH0 CODECOPY PUSH0 RETURN INVALID PUSH1 0x80 PUSH1 0x40 MSTORE CALLVALUE DUP1 ISZERO PUSH2 0xF JUMPI PUSH0 DUP1 REVERT JUMPDEST POP PUSH1 0x4 CALLDATASIZE LT PUSH2 0x4A JUMPI PUSH0 CALLDATALOAD PUSH1 0xE0 SHR DUP1 PUSH4 0x2DA951BE EQ PUSH2 0x4E JUMPI DUP1 PUSH4 0x58AFF6D4 EQ PUSH2 0x6C JUMPI DUP1 PUSH4 0x6E3C6738 EQ PUSH2 0x88 JUMPI DUP1 PUSH4 0x9C0275D0 EQ PUSH2 0xA4 JUMPI JUMPDEST PUSH0 DUP1 REVERT JUMPDEST PUSH2 0x56 PUSH2 0xD5 JUMP JUMPDEST PUSH1 0x40 MLOAD PUSH2 0x63 SWAP2 SWAP1 PUSH2 0x775 JUMP JUMPDEST PUSH1 0x40 MLOAD DUP1 SWAP2 SUB SWAP1 RETURN JUMPDEST PUSH2 0x86 PUSH1 0x4 DUP1 CALLDATASIZE SUB DUP2 ADD SWAP1 PUSH2 0x81 SWAP2 SWAP1 PUSH2 0x8FC JUMP JUMPDEST PUSH2 0x204 JUMP JUMPDEST STOP JUMPDEST PUSH2 0xA2 PUSH1 0x4 DUP1 CALLDATASIZE SUB DUP2 ADD SWAP1 PUSH2 0x9D SWAP2 SWAP1 PUSH2 0x956 JUMP JUMPDEST PUSH2 0x29F JUMP JUMPDEST STOP JUMPDEST PUSH2 0xBE PUSH1 0x4 DUP1 CALLDATASIZE SUB DUP2 ADD SWAP1 PUSH2 0xB9 SWAP2 SWAP1 PUSH2 0x9DB JUMP JUMPDEST PUSH2 0x4E1 JUMP JUMPDEST PUSH1 0x40 MLOAD PUSH2 0xCC SWAP3 SWAP2 SWAP1 PUSH2 0xA70 JUMP JUMPDEST PUSH1 0x40 MLOAD DUP1 SWAP2 SUB SWAP1 RETURN JUMPDEST PUSH1 0x60 PUSH0 DUP1 CALLER PUSH20 0xFFFFFFFFFFFFFFFFFFFFFFFFFFFFFFFFFFFFFFFF AND PUSH20 0xFFFFFFFFFFFFFFFFFFFFFFFFFFFFFFFFFFFFFFFF AND DUP2 MSTORE PUSH1 0x20 ADD SWAP1 DUP2 MSTORE PUSH1 0x20 ADD PUSH0 KECCAK256 DUP1 SLOAD DUP1 PUSH1 0x20 MUL PUSH1 0x20 ADD PUSH1 0x40 MLOAD SWAP1 DUP2 ADD PUSH1 0x40 MSTORE DUP1 SWAP3 SWAP2 SWAP1 DUP2 DUP2 MSTORE PUSH1 0x20 ADD PUSH0 SWAP1 JUMPDEST DUP3 DUP3 LT ISZERO PUSH2 0x1FB JUMPI DUP4 DUP3 SWAP1 PUSH0 MSTORE PUSH1 0x20 PUSH0 KECCAK256 SWAP1 PUSH1 0x2 MUL ADD PUSH1 0x40 MLOAD DUP1 PUSH1 0x40 ADD PUSH1 0x40 MSTORE SWAP1 DUP2 PUSH0 DUP3 ADD DUP1 SLOAD PUSH2 0x162 SWAP1 PUSH2 0xACB JUMP JUMPDEST DUP1 PUSH1 0x1F ADD PUSH1 0x20 DUP1 SWAP2 DIV MUL PUSH1 0x20 ADD PUSH1 0x40 MLOAD SWAP1 DUP2 ADD PUSH1 0x40 MSTORE DUP1 SWAP3 SWAP2 SWAP1 DUP2 DUP2 MSTORE PUSH1 0x20 ADD DUP3 DUP1 SLOAD PUSH2 0x18E SWAP1 PUSH2 0xACB JUMP JUMPDEST DUP1 ISZERO PUSH2 0x1D9 JUMPI DUP1 PUSH1 0x1F LT PUSH2 0x1B0 JUMPI PUSH2 0x100 DUP1 DUP4 SLOAD DIV MUL DUP4 MSTORE SWAP2 PUSH1 0x20 ADD SWAP2 PUSH2 0x1D9 JUMP JUMPDEST DUP3 ADD SWAP2 SWAP1 PUSH0 MSTORE PUSH1 0x20 PUSH0 KECCAK256 SWAP1 JUMPDEST DUP2 SLOAD DUP2 MSTORE SWAP1 PUSH1 0x1 ADD SWAP1 PUSH1 0x20 ADD DUP1 DUP4 GT PUSH2 0x1BC JUMPI DUP3 SWAP1 SUB PUSH1 0x1F AND DUP3 ADD SWAP2 JUMPDEST POP POP POP POP POP DUP2 MSTORE PUSH1 0x20 ADD PUSH1 0x1 DUP3 ADD SLOAD DUP2 MSTORE POP POP DUP2 MSTORE PUSH1 0x20 ADD SWAP1 PUSH1 0x1 ADD SWAP1 PUSH2 0x132 JUMP JUMPDEST POP POP POP POP SWAP1 POP SWAP1 JUMP JUMPDEST PUSH0 DUP1 CALLER PUSH20 0xFFFFFFFFFFFFFFFFFFFFFFFFFFFFFFFFFFFFFFFF AND PUSH20 0xFFFFFFFFFFFFFFFFFFFFFFFFFFFFFFFFFFFFFFFF AND DUP2 MSTORE PUSH1 0x20 ADD SWAP1 DUP2 MSTORE PUSH1 0x20 ADD PUSH0 KECCAK256 PUSH1 0x40 MLOAD DUP1 PUSH1 0x40 ADD PUSH1 0x40 MSTORE DUP1 DUP5 DUP2 MSTORE PUSH1 0x20 ADD DUP4 DUP2 MSTORE POP SWAP1 DUP1 PUSH1 0x1 DUP2 SLOAD ADD DUP1 DUP3 SSTORE DUP1 SWAP2 POP POP PUSH1 0x1 SWAP1 SUB SWAP1 PUSH0 MSTORE PUSH1 0x20 PUSH0 KECCAK256 SWAP1 PUSH1 0x2 MUL ADD PUSH0 SWAP1 SWAP2 SWAP1 SWAP2 SWAP1 SWAP2 POP PUSH0 DUP3 ADD MLOAD DUP2 PUSH0 ADD SWAP1 DUP2 PUSH2 0x28E SWAP2 SWAP1 PUSH2 0xC98 JUMP JUMPDEST POP PUSH1 0x20 DUP3 ADD MLOAD DUP2 PUSH1 0x1 ADD SSTORE POP POP POP POP JUMP JUMPDEST PUSH0 DUP1 CALLER PUSH20 0xFFFFFFFFFFFFFFFFFFFFFFFFFFFFFFFFFFFFFFFF AND PUSH20 0xFFFFFFFFFFFFFFFFFFFFFFFFFFFFFFFFFFFFFFFF AND DUP2 MSTORE PUSH1 0x20 ADD SWAP1 DUP2 MSTORE PUSH1 0x20 ADD PUSH0 KECCAK256 DUP1 SLOAD SWAP1 POP DUP2 LT PUSH2 0x320 JUMPI PUSH1 0x40 MLOAD PUSH32 0x8C379A000000000000000000000000000000000000000000000000000000000 DUP2 MSTORE PUSH1 0x4 ADD PUSH2 0x317 SWAP1 PUSH2 0xDB1 JUMP JUMPDEST PUSH1 0x40 MLOAD DUP1 SWAP2 SUB SWAP1 REVERT JUMPDEST PUSH0 DUP2 SWAP1 POP JUMPDEST PUSH1 0x1 PUSH0 DUP1 CALLER PUSH20 0xFFFFFFFFFFFFFFFFFFFFFFFFFFFFFFFFFFFFFFFF AND PUSH20 0xFFFFFFFFFFFFFFFFFFFFFFFFFFFFFFFFFFFFFFFF AND DUP2 MSTORE PUSH1 0x20 ADD SWAP1 DUP2 MSTORE PUSH1 0x20 ADD PUSH0 KECCAK256 DUP1 SLOAD SWAP1 POP PUSH2 0x371 SWAP2 SWAP1 PUSH2 0xDFC JUMP JUMPDEST DUP2 LT ISZERO PUSH2 0x465 JUMPI PUSH0 DUP1 CALLER PUSH20 0xFFFFFFFFFFFFFFFFFFFFFFFFFFFFFFFFFFFFFFFF AND PUSH20 0xFFFFFFFFFFFFFFFFFFFFFFFFFFFFFFFFFFFFFFFF AND DUP2 MSTORE PUSH1 0x20 ADD SWAP1 DUP2 MSTORE PUSH1 0x20 ADD PUSH0 KECCAK256 PUSH1 0x1 DUP3 PUSH2 0x3C1 SWAP2 SWAP1 PUSH2 0xE2F JUMP JUMPDEST DUP2 SLOAD DUP2 LT PUSH2 0x3D2 JUMPI PUSH2 0x3D1 PUSH2 0xE62 JUMP JUMPDEST JUMPDEST SWAP1 PUSH0 MSTORE PUSH1 0x20 PUSH0 KECCAK256 SWAP1 PUSH1 0x2 MUL ADD PUSH0 DUP1 CALLER PUSH20 0xFFFFFFFFFFFFFFFFFFFFFFFFFFFFFFFFFFFFFFFF AND PUSH20 0xFFFFFFFFFFFFFFFFFFFFFFFFFFFFFFFFFFFFFFFF AND DUP2 MSTORE PUSH1 0x20 ADD SWAP1 DUP2 MSTORE PUSH1 0x20 ADD PUSH0 KECCAK256 DUP3 DUP2 SLOAD DUP2 LT PUSH2 0x42C JUMPI PUSH2 0x42B PUSH2 0xE62 JUMP JUMPDEST JUMPDEST SWAP1 PUSH0 MSTORE PUSH1 0x20 PUSH0 KECCAK256 SWAP1 PUSH1 0x2 MUL ADD PUSH0 DUP3 ADD DUP2 PUSH0 ADD SWAP1 DUP2 PUSH2 0x44A SWAP2 SWAP1 PUSH2 0xEA4 JUMP JUMPDEST POP PUSH1 0x1 DUP3 ADD SLOAD DUP2 PUSH1 0x1 ADD SSTORE SWAP1 POP POP DUP1 DUP1 PUSH1 0x1 ADD SWAP2 POP POP PUSH2 0x325 JUMP JUMPDEST POP PUSH0 DUP1 CALLER PUSH20 0xFFFFFFFFFFFFFFFFFFFFFFFFFFFFFFFFFFFFFFFF AND PUSH20 0xFFFFFFFFFFFFFFFFFFFFFFFFFFFFFFFFFFFFFFFF AND DUP2 MSTORE PUSH1 0x20 ADD SWAP1 DUP2 MSTORE PUSH1 0x20 ADD PUSH0 KECCAK256 DUP1 SLOAD DUP1 PUSH2 0x4B2 JUMPI PUSH2 0x4B1 PUSH2 0xF89 JUMP JUMPDEST JUMPDEST PUSH1 0x1 SWAP1 SUB DUP2 DUP2 SWAP1 PUSH0 MSTORE PUSH1 0x20 PUSH0 KECCAK256 SWAP1 PUSH1 0x2 MUL ADD PUSH0 DUP1 DUP3 ADD PUSH0 PUSH2 0x4D3 SWAP2 SWAP1 PUSH2 0x5A0 JUMP JUMPDEST PUSH1 0x1 DUP3 ADD PUSH0 SWAP1 SSTORE POP POP SWAP1 SSTORE POP JUMP JUMPDEST PUSH0 PUSH1 0x20 MSTORE DUP2 PUSH0 MSTORE PUSH1 0x40 PUSH0 KECCAK256 DUP2 DUP2 SLOAD DUP2 LT PUSH2 0x4F9 JUMPI PUSH0 DUP1 REVERT JUMPDEST SWAP1 PUSH0 MSTORE PUSH1 0x20 PUSH0 KECCAK256 SWAP1 PUSH1 0x2 MUL ADD PUSH0 SWAP2 POP SWAP2 POP POP DUP1 PUSH0 ADD DUP1 SLOAD PUSH2 0x519 SWAP1 PUSH2 0xACB JUMP JUMPDEST DUP1 PUSH1 0x1F ADD PUSH1 0x20 DUP1 SWAP2 DIV MUL PUSH1 0x20 ADD PUSH1 0x40 MLOAD SWAP1 DUP2 ADD PUSH1 0x40 MSTORE DUP1 SWAP3 SWAP2 SWAP1 DUP2 DUP2 MSTORE PUSH1 0x20 ADD DUP3 DUP1 SLOAD PUSH2 0x545 SWAP1 PUSH2 0xACB JUMP JUMPDEST DUP1 ISZERO PUSH2 0x590 JUMPI DUP1 PUSH1 0x1F LT PUSH2 0x567 JUMPI PUSH2 0x100 DUP1 DUP4 SLOAD DIV MUL DUP4 MSTORE SWAP2 PUSH1 0x20 ADD SWAP2 PUSH2 0x590 JUMP JUMPDEST DUP3 ADD SWAP2 SWAP1 PUSH0 MSTORE PUSH1 0x20 PUSH0 KECCAK256 SWAP1 JUMPDEST DUP2 SLOAD DUP2 MSTORE SWAP1 PUSH1 0x1 ADD SWAP1 PUSH1 0x20 ADD DUP1 DUP4 GT PUSH2 0x573 JUMPI DUP3 SWAP1 SUB PUSH1 0x1F AND DUP3 ADD SWAP2 JUMPDEST POP POP POP POP POP SWAP1 DUP1 PUSH1 0x1 ADD SLOAD SWAP1 POP DUP3 JUMP JUMPDEST POP DUP1 SLOAD PUSH2 0x5AC SWAP1 PUSH2 0xACB JUMP JUMPDEST PUSH0 DUP3 SSTORE DUP1 PUSH1 0x1F LT PUSH2 0x5BD JUMPI POP PUSH2 0x5DA JUMP JUMPDEST PUSH1 0x1F ADD PUSH1 0x20 SWAP1 DIV SWAP1 PUSH0 MSTORE PUSH1 0x20 PUSH0 KECCAK256 SWAP1 DUP2 ADD SWAP1 PUSH2 0x5D9 SWAP2 SWAP1 PUSH2 0x5DD JUMP JUMPDEST JUMPDEST POP JUMP JUMPDEST JUMPDEST DUP1 DUP3 GT ISZERO PUSH2 0x5F4 JUMPI PUSH0 DUP2 PUSH0 SWAP1 SSTORE POP PUSH1 0x1 ADD PUSH2 0x5DE JUMP JUMPDEST POP SWAP1 JUMP JUMPDEST PUSH0 DUP2 MLOAD SWAP1 POP SWAP2 SWAP1 POP JUMP JUMPDEST PUSH0 DUP3 DUP3 MSTORE PUSH1 0x20 DUP3 ADD SWAP1 POP SWAP3 SWAP2 POP POP JUMP JUMPDEST PUSH0 DUP2 SWAP1 POP PUSH1 0x20 DUP3 ADD SWAP1 POP SWAP2 SWAP1 POP JUMP JUMPDEST PUSH0 DUP2 MLOAD SWAP1 POP SWAP2 SWAP1 POP JUMP JUMPDEST PUSH0 DUP3 DUP3 MSTORE PUSH1 0x20 DUP3 ADD SWAP1 POP SWAP3 SWAP2 POP POP JUMP JUMPDEST DUP3 DUP2 DUP4 MCOPY PUSH0 DUP4 DUP4 ADD MSTORE POP POP POP JUMP JUMPDEST PUSH0 PUSH1 0x1F NOT PUSH1 0x1F DUP4 ADD AND SWAP1 POP SWAP2 SWAP1 POP JUMP JUMPDEST PUSH0 PUSH2 0x663 DUP3 PUSH2 0x621 JUMP JUMPDEST PUSH2 0x66D DUP2 DUP6 PUSH2 0x62B JUMP JUMPDEST SWAP4 POP PUSH2 0x67D DUP2 DUP6 PUSH1 0x20 DUP7 ADD PUSH2 0x63B JUMP JUMPDEST PUSH2 0x686 DUP2 PUSH2 0x649 JUMP JUMPDEST DUP5 ADD SWAP2 POP POP SWAP3 SWAP2 POP POP JUMP JUMPDEST PUSH0 DUP2 SWAP1 POP SWAP2 SWAP1 POP JUMP JUMPDEST PUSH2 0x6A3 DUP2 PUSH2 0x691 JUMP JUMPDEST DUP3 MSTORE POP POP JUMP JUMPDEST PUSH0 PUSH1 0x40 DUP4 ADD PUSH0 DUP4 ADD MLOAD DUP5 DUP3 SUB PUSH0 DUP7 ADD MSTORE PUSH2 0x6C3 DUP3 DUP3 PUSH2 0x659 JUMP JUMPDEST SWAP2 POP POP PUSH1 0x20 DUP4 ADD MLOAD PUSH2 0x6D8 PUSH1 0x20 DUP7 ADD DUP3 PUSH2 0x69A JUMP JUMPDEST POP DUP1 SWAP2 POP POP SWAP3 SWAP2 POP POP JUMP JUMPDEST PUSH0 PUSH2 0x6EE DUP4 DUP4 PUSH2 0x6A9 JUMP JUMPDEST SWAP1 POP SWAP3 SWAP2 POP POP JUMP JUMPDEST PUSH0 PUSH1 0x20 DUP3 ADD SWAP1 POP SWAP2 SWAP1 POP JUMP JUMPDEST PUSH0 PUSH2 0x70C DUP3 PUSH2 0x5F8 JUMP JUMPDEST PUSH2 0x716 DUP2 DUP6 PUSH2 0x602 JUMP JUMPDEST SWAP4 POP DUP4 PUSH1 0x20 DUP3 MUL DUP6 ADD PUSH2 0x728 DUP6 PUSH2 0x612 JUMP JUMPDEST DUP1 PUSH0 JUMPDEST DUP6 DUP2 LT ISZERO PUSH2 0x763 JUMPI DUP5 DUP5 SUB DUP10 MSTORE DUP2 MLOAD PUSH2 0x744 DUP6 DUP3 PUSH2 0x6E3 JUMP JUMPDEST SWAP5 POP PUSH2 0x74F DUP4 PUSH2 0x6F6 JUMP JUMPDEST SWAP3 POP PUSH1 0x20 DUP11 ADD SWAP10 POP POP PUSH1 0x1 DUP2 ADD SWAP1 POP PUSH2 0x72B JUMP JUMPDEST POP DUP3 SWAP8 POP DUP8 SWAP6 POP POP POP POP POP POP SWAP3 SWAP2 POP POP JUMP JUMPDEST PUSH0 PUSH1 0x20 DUP3 ADD SWAP1 POP DUP2 DUP2 SUB PUSH0 DUP4 ADD MSTORE PUSH2 0x78D DUP2 DUP5 PUSH2 0x702 JUMP JUMPDEST SWAP1 POP SWAP3 SWAP2 POP POP JUMP JUMPDEST PUSH0 PUSH1 0x40 MLOAD SWAP1 POP SWAP1 JUMP JUMPDEST PUSH0 DUP1 REVERT JUMPDEST PUSH0 DUP1 REVERT JUMPDEST PUSH0 DUP1 REVERT JUMPDEST PUSH0 DUP1 REVERT JUMPDEST PUSH32 0x4E487B7100000000000000000000000000000000000000000000000000000000 PUSH0 MSTORE PUSH1 0x41 PUSH1 0x4 MSTORE PUSH1 0x24 PUSH0 REVERT JUMPDEST PUSH2 0x7E4 DUP3 PUSH2 0x649 JUMP JUMPDEST DUP2 ADD DUP2 DUP2 LT PUSH8 0xFFFFFFFFFFFFFFFF DUP3 GT OR ISZERO PUSH2 0x803 JUMPI PUSH2 0x802 PUSH2 0x7AE JUMP JUMPDEST JUMPDEST DUP1 PUSH1 0x40 MSTORE POP POP POP JUMP JUMPDEST PUSH0 PUSH2 0x815 PUSH2 0x795 JUMP JUMPDEST SWAP1 POP PUSH2 0x821 DUP3 DUP3 PUSH2 0x7DB JUMP JUMPDEST SWAP2 SWAP1 POP JUMP JUMPDEST PUSH0 PUSH8 0xFFFFFFFFFFFFFFFF DUP3 GT ISZERO PUSH2 0x840 JUMPI PUSH2 0x83F PUSH2 0x7AE JUMP JUMPDEST JUMPDEST PUSH2 0x849 DUP3 PUSH2 0x649 JUMP JUMPDEST SWAP1 POP PUSH1 0x20 DUP2 ADD SWAP1 POP SWAP2 SWAP1 POP JUMP JUMPDEST DUP3 DUP2 DUP4 CALLDATACOPY PUSH0 DUP4 DUP4 ADD MSTORE POP POP POP JUMP JUMPDEST PUSH0 PUSH2 0x876 PUSH2 0x871 DUP5 PUSH2 0x826 JUMP JUMPDEST PUSH2 0x80C JUMP JUMPDEST SWAP1 POP DUP3 DUP2 MSTORE PUSH1 0x20 DUP2 ADD DUP5 DUP5 DUP5 ADD GT ISZERO PUSH2 0x892 JUMPI PUSH2 0x891 PUSH2 0x7AA JUMP JUMPDEST JUMPDEST PUSH2 0x89D DUP5 DUP3 DUP6 PUSH2 0x856 JUMP JUMPDEST POP SWAP4 SWAP3 POP POP POP JUMP JUMPDEST PUSH0 DUP3 PUSH1 0x1F DUP4 ADD SLT PUSH2 0x8B9 JUMPI PUSH2 0x8B8 PUSH2 0x7A6 JUMP JUMPDEST JUMPDEST DUP2 CALLDATALOAD PUSH2 0x8C9 DUP5 DUP3 PUSH1 0x20 DUP7 ADD PUSH2 0x864 JUMP JUMPDEST SWAP2 POP POP SWAP3 SWAP2 POP POP JUMP JUMPDEST PUSH2 0x8DB DUP2 PUSH2 0x691 JUMP JUMPDEST DUP2 EQ PUSH2 0x8E5 JUMPI PUSH0 DUP1 REVERT JUMPDEST POP JUMP JUMPDEST PUSH0 DUP2 CALLDATALOAD SWAP1 POP PUSH2 0x8F6 DUP2 PUSH2 0x8D2 JUMP JUMPDEST SWAP3 SWAP2 POP POP JUMP JUMPDEST PUSH0 DUP1 PUSH1 0x40 DUP4 DUP6 SUB SLT ISZERO PUSH2 0x912 JUMPI PUSH2 0x911 PUSH2 0x79E JUMP JUMPDEST JUMPDEST PUSH0 DUP4 ADD CALLDATALOAD PUSH8 0xFFFFFFFFFFFFFFFF DUP2 GT ISZERO PUSH2 0x92F JUMPI PUSH2 0x92E PUSH2 0x7A2 JUMP JUMPDEST JUMPDEST PUSH2 0x93B DUP6 DUP3 DUP7 ADD PUSH2 0x8A5 JUMP JUMPDEST SWAP3 POP POP PUSH1 0x20 PUSH2 0x94C DUP6 DUP3 DUP7 ADD PUSH2 0x8E8 JUMP JUMPDEST SWAP2 POP POP SWAP3 POP SWAP3 SWAP1 POP JUMP JUMPDEST PUSH0 PUSH1 0x20 DUP3 DUP5 SUB SLT ISZERO PUSH2 0x96B JUMPI PUSH2 0x96A PUSH2 0x79E JUMP JUMPDEST JUMPDEST PUSH0 PUSH2 0x978 DUP5 DUP3 DUP6 ADD PUSH2 0x8E8 JUMP JUMPDEST SWAP2 POP POP SWAP3 SWAP2 POP POP JUMP JUMPDEST PUSH0 PUSH20 0xFFFFFFFFFFFFFFFFFFFFFFFFFFFFFFFFFFFFFFFF DUP3 AND SWAP1 POP SWAP2 SWAP1 POP JUMP JUMPDEST PUSH0 PUSH2 0x9AA DUP3 PUSH2 0x981 JUMP JUMPDEST SWAP1 POP SWAP2 SWAP1 POP JUMP JUMPDEST PUSH2 0x9BA DUP2 PUSH2 0x9A0 JUMP JUMPDEST DUP2 EQ PUSH2 0x9C4 JUMPI PUSH0 DUP1 REVERT JUMPDEST POP JUMP JUMPDEST PUSH0 DUP2 CALLDATALOAD SWAP1 POP PUSH2 0x9D5 DUP2 PUSH2 0x9B1 JUMP JUMPDEST SWAP3 SWAP2 POP POP JUMP JUMPDEST PUSH0 DUP1 PUSH1 0x40 DUP4 DUP6 SUB SLT ISZERO PUSH2 0x9F1 JUMPI PUSH2 0x9F0 PUSH2 0x79E JUMP JUMPDEST JUMPDEST PUSH0 PUSH2 0x9FE DUP6 DUP3 DUP7 ADD PUSH2 0x9C7 JUMP JUMPDEST SWAP3 POP POP PUSH1 0x20 PUSH2 0xA0F DUP6 DUP3 DUP7 ADD PUSH2 0x8E8 JUMP JUMPDEST SWAP2 POP POP SWAP3 POP SWAP3 SWAP1 POP JUMP JUMPDEST PUSH0 DUP3 DUP3 MSTORE PUSH1 0x20 DUP3 ADD SWAP1 POP SWAP3 SWAP2 POP POP JUMP JUMPDEST PUSH0 PUSH2 0xA33 DUP3 PUSH2 0x621 JUMP JUMPDEST PUSH2 0xA3D DUP2 DUP6 PUSH2 0xA19 JUMP JUMPDEST SWAP4 POP PUSH2 0xA4D DUP2 DUP6 PUSH1 0x20 DUP7 ADD PUSH2 0x63B JUMP JUMPDEST PUSH2 0xA56 DUP2 PUSH2 0x649 JUMP JUMPDEST DUP5 ADD SWAP2 POP POP SWAP3 SWAP2 POP POP JUMP JUMPDEST PUSH2 0xA6A DUP2 PUSH2 0x691 JUMP JUMPDEST DUP3 MSTORE POP POP JUMP JUMPDEST PUSH0 PUSH1 0x40 DUP3 ADD SWAP1 POP DUP2 DUP2 SUB PUSH0 DUP4 ADD MSTORE PUSH2 0xA88 DUP2 DUP6 PUSH2 0xA29 JUMP JUMPDEST SWAP1 POP PUSH2 0xA97 PUSH1 0x20 DUP4 ADD DUP5 PUSH2 0xA61 JUMP JUMPDEST SWAP4 SWAP3 POP POP POP JUMP JUMPDEST PUSH32 0x4E487B7100000000000000000000000000000000000000000000000000000000 PUSH0 MSTORE PUSH1 0x22 PUSH1 0x4 MSTORE PUSH1 0x24 PUSH0 REVERT JUMPDEST PUSH0 PUSH1 0x2 DUP3 DIV SWAP1 POP PUSH1 0x1 DUP3 AND DUP1 PUSH2 0xAE2 JUMPI PUSH1 0x7F DUP3 AND SWAP2 POP JUMPDEST PUSH1 0x20 DUP3 LT DUP2 SUB PUSH2 0xAF5 JUMPI PUSH2 0xAF4 PUSH2 0xA9E JUMP JUMPDEST JUMPDEST POP SWAP2 SWAP1 POP JUMP JUMPDEST PUSH0 DUP2 SWAP1 POP DUP2 PUSH0 MSTORE PUSH1 0x20 PUSH0 KECCAK256 SWAP1 POP SWAP2 SWAP1 POP JUMP JUMPDEST PUSH0 PUSH1 0x20 PUSH1 0x1F DUP4 ADD DIV SWAP1 POP SWAP2 SWAP1 POP JUMP JUMPDEST PUSH0 DUP3 DUP3 SHL SWAP1 POP SWAP3 SWAP2 POP POP JUMP JUMPDEST PUSH0 PUSH1 0x8 DUP4 MUL PUSH2 0xB57 PUSH32 0xFFFFFFFFFFFFFFFFFFFFFFFFFFFFFFFFFFFFFFFFFFFFFFFFFFFFFFFFFFFFFFFF DUP3 PUSH2 0xB1C JUMP JUMPDEST PUSH2 0xB61 DUP7 DUP4 PUSH2 0xB1C JUMP JUMPDEST SWAP6 POP DUP1 NOT DUP5 AND SWAP4 POP DUP1 DUP7 AND DUP5 OR SWAP3 POP POP POP SWAP4 SWAP3 POP POP POP JUMP JUMPDEST PUSH0 DUP2 SWAP1 POP SWAP2 SWAP1 POP JUMP JUMPDEST PUSH0 PUSH2 0xB9C PUSH2 0xB97 PUSH2 0xB92 DUP5 PUSH2 0x691 JUMP JUMPDEST PUSH2 0xB79 JUMP JUMPDEST PUSH2 0x691 JUMP JUMPDEST SWAP1 POP SWAP2 SWAP1 POP JUMP JUMPDEST PUSH0 DUP2 SWAP1 POP SWAP2 SWAP1 POP JUMP JUMPDEST PUSH2 0xBB5 DUP4 PUSH2 0xB82 JUMP JUMPDEST PUSH2 0xBC9 PUSH2 0xBC1 DUP3 PUSH2 0xBA3 JUMP JUMPDEST DUP5 DUP5 SLOAD PUSH2 0xB28 JUMP JUMPDEST DUP3 SSTORE POP POP POP POP JUMP JUMPDEST PUSH0 SWAP1 JUMP JUMPDEST PUSH2 0xBDD PUSH2 0xBD1 JUMP JUMPDEST PUSH2 0xBE8 DUP2 DUP5 DUP5 PUSH2 0xBAC JUMP JUMPDEST POP POP POP JUMP JUMPDEST JUMPDEST DUP2 DUP2 LT ISZERO PUSH2 0xC0B JUMPI PUSH2 0xC00 PUSH0 DUP3 PUSH2 0xBD5 JUMP JUMPDEST PUSH1 0x1 DUP2 ADD SWAP1 POP PUSH2 0xBEE JUMP JUMPDEST POP POP JUMP JUMPDEST PUSH1 0x1F DUP3 GT ISZERO PUSH2 0xC50 JUMPI PUSH2 0xC21 DUP2 PUSH2 0xAFB JUMP JUMPDEST PUSH2 0xC2A DUP5 PUSH2 0xB0D JUMP JUMPDEST DUP2 ADD PUSH1 0x20 DUP6 LT ISZERO PUSH2 0xC39 JUMPI DUP2 SWAP1 POP JUMPDEST PUSH2 0xC4D PUSH2 0xC45 DUP6 PUSH2 0xB0D JUMP JUMPDEST DUP4 ADD DUP3 PUSH2 0xBED JUMP JUMPDEST POP POP JUMPDEST POP POP POP JUMP JUMPDEST PUSH0 DUP3 DUP3 SHR SWAP1 POP SWAP3 SWAP2 POP POP JUMP JUMPDEST PUSH0 PUSH2 0xC70 PUSH0 NOT DUP5 PUSH1 0x8 MUL PUSH2 0xC55 JUMP JUMPDEST NOT DUP1 DUP4 AND SWAP2 POP POP SWAP3 SWAP2 POP POP JUMP JUMPDEST PUSH0 PUSH2 0xC88 DUP4 DUP4 PUSH2 0xC61 JUMP JUMPDEST SWAP2 POP DUP3 PUSH1 0x2 MUL DUP3 OR SWAP1 POP SWAP3 SWAP2 POP POP JUMP JUMPDEST PUSH2 0xCA1 DUP3 PUSH2 0x621 JUMP JUMPDEST PUSH8 0xFFFFFFFFFFFFFFFF DUP2 GT ISZERO PUSH2 0xCBA JUMPI PUSH2 0xCB9 PUSH2 0x7AE JUMP JUMPDEST JUMPDEST PUSH2 0xCC4 DUP3 SLOAD PUSH2 0xACB JUMP JUMPDEST PUSH2 0xCCF DUP3 DUP3 DUP6 PUSH2 0xC0F JUMP JUMPDEST PUSH0 PUSH1 0x20 SWAP1 POP PUSH1 0x1F DUP4 GT PUSH1 0x1 DUP2 EQ PUSH2 0xD00 JUMPI PUSH0 DUP5 ISZERO PUSH2 0xCEE JUMPI DUP3 DUP8 ADD MLOAD SWAP1 POP JUMPDEST PUSH2 0xCF8 DUP6 DUP3 PUSH2 0xC7D JUMP JUMPDEST DUP7 SSTORE POP PUSH2 0xD5F JUMP JUMPDEST PUSH1 0x1F NOT DUP5 AND PUSH2 0xD0E DUP7 PUSH2 0xAFB JUMP JUMPDEST PUSH0 JUMPDEST DUP3 DUP2 LT ISZERO PUSH2 0xD35 JUMPI DUP5 DUP10 ADD MLOAD DUP3 SSTORE PUSH1 0x1 DUP3 ADD SWAP2 POP PUSH1 0x20 DUP6 ADD SWAP5 POP PUSH1 0x20 DUP2 ADD SWAP1 POP PUSH2 0xD10 JUMP JUMPDEST DUP7 DUP4 LT ISZERO PUSH2 0xD52 JUMPI DUP5 DUP10 ADD MLOAD PUSH2 0xD4E PUSH1 0x1F DUP10 AND DUP3 PUSH2 0xC61 JUMP JUMPDEST DUP4 SSTORE POP JUMPDEST PUSH1 0x1 PUSH1 0x2 DUP9 MUL ADD DUP9 SSTORE POP POP POP JUMPDEST POP POP POP POP POP POP JUMP JUMPDEST PUSH32 0x6F7574206F6620696E6465780000000000000000000000000000000000000000 PUSH0 DUP3 ADD MSTORE POP JUMP JUMPDEST PUSH0 PUSH2 0xD9B PUSH1 0xC DUP4 PUSH2 0xA19 JUMP JUMPDEST SWAP2 POP PUSH2 0xDA6 DUP3 PUSH2 0xD67 JUMP JUMPDEST PUSH1 0x20 DUP3 ADD SWAP1 POP SWAP2 SWAP1 POP JUMP JUMPDEST PUSH0 PUSH1 0x20 DUP3 ADD SWAP1 POP DUP2 DUP2 SUB PUSH0 DUP4 ADD MSTORE PUSH2 0xDC8 DUP2 PUSH2 0xD8F JUMP JUMPDEST SWAP1 POP SWAP2 SWAP1 POP JUMP JUMPDEST PUSH32 0x4E487B7100000000000000000000000000000000000000000000000000000000 PUSH0 MSTORE PUSH1 0x11 PUSH1 0x4 MSTORE PUSH1 0x24 PUSH0 REVERT JUMPDEST PUSH0 PUSH2 0xE06 DUP3 PUSH2 0x691 JUMP JUMPDEST SWAP2 POP PUSH2 0xE11 DUP4 PUSH2 0x691 JUMP JUMPDEST SWAP3 POP DUP3 DUP3 SUB SWAP1 POP DUP2 DUP2 GT ISZERO PUSH2 0xE29 JUMPI PUSH2 0xE28 PUSH2 0xDCF JUMP JUMPDEST JUMPDEST SWAP3 SWAP2 POP POP JUMP JUMPDEST PUSH0 PUSH2 0xE39 DUP3 PUSH2 0x691 JUMP JUMPDEST SWAP2 POP PUSH2 0xE44 DUP4 PUSH2 0x691 JUMP JUMPDEST SWAP3 POP DUP3 DUP3 ADD SWAP1 POP DUP1 DUP3 GT ISZERO PUSH2 0xE5C JUMPI PUSH2 0xE5B PUSH2 0xDCF JUMP JUMPDEST JUMPDEST SWAP3 SWAP2 POP POP JUMP JUMPDEST PUSH32 0x4E487B7100000000000000000000000000000000000000000000000000000000 PUSH0 MSTORE PUSH1 0x32 PUSH1 0x4 MSTORE PUSH1 0x24 PUSH0 REVERT JUMPDEST PUSH0 DUP2 SLOAD SWAP1 POP PUSH2 0xE9D DUP2 PUSH2 0xACB JUMP JUMPDEST SWAP1 POP SWAP2 SWAP1 POP JUMP JUMPDEST DUP2 DUP2 SUB PUSH2 0xEB2 JUMPI POP POP PUSH2 0xF87 JUMP JUMPDEST PUSH2 0xEBB DUP3 PUSH2 0xE8F JUMP JUMPDEST PUSH8 0xFFFFFFFFFFFFFFFF DUP2 GT ISZERO PUSH2 0xED4 JUMPI PUSH2 0xED3 PUSH2 0x7AE JUMP JUMPDEST JUMPDEST PUSH2 0xEDE DUP3 SLOAD PUSH2 0xACB JUMP JUMPDEST PUSH2 0xEE9 DUP3 DUP3 DUP6 PUSH2 0xC0F JUMP JUMPDEST PUSH0 PUSH1 0x1F DUP4 GT PUSH1 0x1 DUP2 EQ PUSH2 0xF16 JUMPI PUSH0 DUP5 ISZERO PUSH2 0xF04 JUMPI DUP3 DUP8 ADD SLOAD SWAP1 POP JUMPDEST PUSH2 0xF0E DUP6 DUP3 PUSH2 0xC7D JUMP JUMPDEST DUP7 SSTORE POP PUSH2 0xF80 JUMP JUMPDEST PUSH1 0x1F NOT DUP5 AND PUSH2 0xF24 DUP8 PUSH2 0xAFB JUMP JUMPDEST SWAP7 POP PUSH2 0xF2F DUP7 PUSH2 0xAFB JUMP JUMPDEST PUSH0 JUMPDEST DUP3 DUP2 LT ISZERO PUSH2 0xF56 JUMPI DUP5 DUP10 ADD SLOAD DUP3 SSTORE PUSH1 0x1 DUP3 ADD SWAP2 POP PUSH1 0x1 DUP6 ADD SWAP5 POP PUSH1 0x20 DUP2 ADD SWAP1 POP PUSH2 0xF31 JUMP JUMPDEST DUP7 DUP4 LT ISZERO PUSH2 0xF73 JUMPI DUP5 DUP10 ADD SLOAD PUSH2 0xF6F PUSH1 0x1F DUP10 AND DUP3 PUSH2 0xC61 JUMP JUMPDEST DUP4 SSTORE POP JUMPDEST PUSH1 0x1 PUSH1 0x2 DUP9 MUL ADD DUP9 SSTORE POP POP POP JUMPDEST POP POP POP POP POP POP JUMPDEST JUMP JUMPDEST PUSH32 0x4E487B7100000000000000000000000000000000000000000000000000000000 PUSH0 MSTORE PUSH1 0x31 PUSH1 0x4 MSTORE PUSH1 0x24 PUSH0 REVERT INVALID LOG2 PUSH5 0x6970667358 0x22 SLT KECCAK256 MSTORE 0xDF PUSH4 0x2C2EE78 0xB6 0xE0 0xE7 0xF 0xD8 PUSH2 0xE8E SWAP8 0x2C LOG1 PUSH29 0xA101FE8F645DCFBB116079BB1664736F6C634300081A00330000000000 "
				},
				"gasEstimates": {
					"creation": {
						"codeDepositCost": "815200",
						"executionCost": "849",
						"totalCost": "816049"
					},
					"external": {
						"addTodo(string,uint256)": "infinite",
						"deleteTodo(uint256)": "infinite",
						"getUserTodoList()": "infinite",
						"userTodoList(address,uint256)": "infinite"
					}
				},
				"methodIdentifiers": {
					"addTodo(string,uint256)": "58aff6d4",
					"deleteTodo(uint256)": "6e3c6738",
					"getUserTodoList()": "2da951be",
					"userTodoList(address,uint256)": "9c0275d0"
				}
			},
			"storageLayout": {
				"storage": [
					{
						"astId": 12,
						"contract": "contracts/TodoList.sol:TodoList",
						"label": "userTodoList",
						"offset": 0,
						"slot": "0",
						"type": "t_mapping(t_address,t_array(t_struct(todoList)6_storage)dyn_storage)"
					}
				],
				"types": {
					"t_address": {
						"encoding": "inplace",
						"label": "address",
						"numberOfBytes": "20"
					},
					"t_array(t_struct(todoList)6_storage)dyn_storage": {
						"base": "t_struct(todoList)6_storage",
						"encoding": "dynamic_array",
						"label": "struct TodoList.todoList[]",
						"numberOfBytes": "32"
					},
					"t_mapping(t_address,t_array(t_struct(todoList)6_storage)dyn_storage)": {
						"encoding": "mapping",
						"key": "t_address",
						"label": "mapping(address => struct TodoList.todoList[])",
						"numberOfBytes": "32",
						"value": "t_array(t_struct(todoList)6_storage)dyn_storage"
					},
					"t_string_storage": {
						"encoding": "bytes",
						"label": "string",
						"numberOfBytes": "32"
					},
					"t_struct(todoList)6_storage": {
						"encoding": "inplace",
						"label": "struct TodoList.todoList",
						"members": [
							{
								"astId": 3,
								"contract": "contracts/TodoList.sol:TodoList",
								"label": "name",
								"offset": 0,
								"slot": "0",
								"type": "t_string_storage"
							},
							{
								"astId": 5,
								"contract": "contracts/TodoList.sol:TodoList",
								"label": "count",
								"offset": 0,
								"slot": "1",
								"type": "t_uint256"
							}
						],
						"numberOfBytes": "64"
					},
					"t_uint256": {
						"encoding": "inplace",
						"label": "uint256",
						"numberOfBytes": "32"
					}
				}
			},
			"userdoc": {
				"kind": "user",
				"methods": {},
				"version": 1
			}
		}
	}
}